{"contracts/LensWeaveCollective.sol":{"LensWeaveCollective":{"abi":[{"inputs":[{"internalType":"address","name":"initialOwner","type":"address"}],"stateMutability":"nonpayable","type":"constructor"},{"inputs":[{"internalType":"uint256","name":"numerator","type":"uint256"},{"internalType":"uint256","name":"denominator","type":"uint256"}],"name":"ERC2981InvalidDefaultRoyalty","type":"error"},{"inputs":[{"internalType":"address","name":"receiver","type":"address"}],"name":"ERC2981InvalidDefaultRoyaltyReceiver","type":"error"},{"inputs":[{"internalType":"uint256","name":"tokenId","type":"uint256"},{"internalType":"uint256","name":"numerator","type":"uint256"},{"internalType":"uint256","name":"denominator","type":"uint256"}],"name":"ERC2981InvalidTokenRoyalty","type":"error"},{"inputs":[{"internalType":"uint256","name":"tokenId","type":"uint256"},{"internalType":"address","name":"receiver","type":"address"}],"name":"ERC2981InvalidTokenRoyaltyReceiver","type":"error"},{"inputs":[{"internalType":"address","name":"sender","type":"address"},{"internalType":"uint256","name":"tokenId","type":"uint256"},{"internalType":"address","name":"owner","type":"address"}],"name":"ERC721IncorrectOwner","type":"error"},{"inputs":[{"internalType":"address","name":"operator","type":"address"},{"internalType":"uint256","name":"tokenId","type":"uint256"}],"name":"ERC721InsufficientApproval","type":"error"},{"inputs":[{"internalType":"address","name":"approver","type":"address"}],"name":"ERC721InvalidApprover","type":"error"},{"inputs":[{"internalType":"address","name":"operator","type":"address"}],"name":"ERC721InvalidOperator","type":"error"},{"inputs":[{"internalType":"address","name":"owner","type":"address"}],"name":"ERC721InvalidOwner","type":"error"},{"inputs":[{"internalType":"address","name":"receiver","type":"address"}],"name":"ERC721InvalidReceiver","type":"error"},{"inputs":[{"internalType":"address","name":"sender","type":"address"}],"name":"ERC721InvalidSender","type":"error"},{"inputs":[{"internalType":"uint256","name":"tokenId","type":"uint256"}],"name":"ERC721NonexistentToken","type":"error"},{"inputs":[{"internalType":"address","name":"owner","type":"address"}],"name":"OwnableInvalidOwner","type":"error"},{"inputs":[{"internalType":"address","name":"account","type":"address"}],"name":"OwnableUnauthorizedAccount","type":"error"},{"anonymous":false,"inputs":[{"indexed":true,"internalType":"address","name":"owner","type":"address"},{"indexed":true,"internalType":"address","name":"approved","type":"address"},{"indexed":true,"internalType":"uint256","name":"tokenId","type":"uint256"}],"name":"Approval","type":"event"},{"anonymous":false,"inputs":[{"indexed":true,"internalType":"address","name":"owner","type":"address"},{"indexed":true,"internalType":"address","name":"operator","type":"address"},{"indexed":false,"internalType":"bool","name":"approved","type":"bool"}],"name":"ApprovalForAll","type":"event"},{"anonymous":false,"inputs":[{"indexed":true,"internalType":"uint256","name":"tokenId","type":"uint256"},{"indexed":false,"internalType":"string","name":"uri","type":"string"},{"indexed":false,"internalType":"address[]","name":"creators","type":"address[]"},{"indexed":false,"internalType":"uint96[]","name":"sharesBps","type":"uint96[]"},{"indexed":false,"internalType":"uint96","name":"royaltyBps","type":"uint96"}],"name":"Minted","type":"event"},{"anonymous":false,"inputs":[{"indexed":true,"internalType":"address","name":"previousOwner","type":"address"},{"indexed":true,"internalType":"address","name":"newOwner","type":"address"}],"name":"OwnershipTransferred","type":"event"},{"anonymous":false,"inputs":[{"indexed":true,"internalType":"address","name":"from","type":"address"},{"indexed":true,"internalType":"address","name":"to","type":"address"},{"indexed":true,"internalType":"uint256","name":"tokenId","type":"uint256"}],"name":"Transfer","type":"event"},{"inputs":[{"internalType":"address","name":"to","type":"address"},{"internalType":"uint256","name":"tokenId","type":"uint256"}],"name":"approve","outputs":[],"stateMutability":"nonpayable","type":"function"},{"inputs":[{"internalType":"address","name":"owner","type":"address"}],"name":"balanceOf","outputs":[{"internalType":"uint256","name":"","type":"uint256"}],"stateMutability":"view","type":"function"},{"inputs":[],"name":"claim","outputs":[],"stateMutability":"nonpayable","type":"function"},{"inputs":[],"name":"deposit","outputs":[],"stateMutability":"payable","type":"function"},{"inputs":[{"internalType":"uint256","name":"tokenId","type":"uint256"}],"name":"getApproved","outputs":[{"internalType":"address","name":"","type":"address"}],"stateMutability":"view","type":"function"},{"inputs":[{"internalType":"uint256","name":"tokenId","type":"uint256"}],"name":"getSplits","outputs":[{"components":[{"internalType":"address","name":"account","type":"address"},{"internalType":"uint96","name":"bps","type":"uint96"}],"internalType":"struct LensWeaveCollective.Split[]","name":"","type":"tuple[]"}],"stateMutability":"view","type":"function"},{"inputs":[{"internalType":"address","name":"owner","type":"address"},{"internalType":"address","name":"operator","type":"address"}],"name":"isApprovedForAll","outputs":[{"internalType":"bool","name":"","type":"bool"}],"stateMutability":"view","type":"function"},{"inputs":[{"internalType":"string","name":"uri","type":"string"},{"internalType":"address[]","name":"creators","type":"address[]"},{"internalType":"uint96[]","name":"sharesBps","type":"uint96[]"},{"internalType":"uint96","name":"royaltyBps","type":"uint96"},{"internalType":"address","name":"to","type":"address"}],"name":"mintCollective","outputs":[{"internalType":"uint256","name":"tokenId","type":"uint256"}],"stateMutability":"nonpayable","type":"function"},{"inputs":[],"name":"name","outputs":[{"internalType":"string","name":"","type":"string"}],"stateMutability":"view","type":"function"},{"inputs":[],"name":"owner","outputs":[{"internalType":"address","name":"","type":"address"}],"stateMutability":"view","type":"function"},{"inputs":[{"internalType":"uint256","name":"tokenId","type":"uint256"}],"name":"ownerOf","outputs":[{"internalType":"address","name":"","type":"address"}],"stateMutability":"view","type":"function"},{"inputs":[{"internalType":"address","name":"","type":"address"}],"name":"released","outputs":[{"internalType":"uint256","name":"","type":"uint256"}],"stateMutability":"view","type":"function"},{"inputs":[],"name":"renounceOwnership","outputs":[],"stateMutability":"nonpayable","type":"function"},{"inputs":[{"internalType":"uint256","name":"tokenId","type":"uint256"},{"internalType":"uint256","name":"salePrice","type":"uint256"}],"name":"royaltyInfo","outputs":[{"internalType":"address","name":"receiver","type":"address"},{"internalType":"uint256","name":"amount","type":"uint256"}],"stateMutability":"view","type":"function"},{"inputs":[{"internalType":"address","name":"from","type":"address"},{"internalType":"address","name":"to","type":"address"},{"internalType":"uint256","name":"tokenId","type":"uint256"}],"name":"safeTransferFrom","outputs":[],"stateMutability":"nonpayable","type":"function"},{"inputs":[{"internalType":"address","name":"from","type":"address"},{"internalType":"address","name":"to","type":"address"},{"internalType":"uint256","name":"tokenId","type":"uint256"},{"internalType":"bytes","name":"data","type":"bytes"}],"name":"safeTransferFrom","outputs":[],"stateMutability":"nonpayable","type":"function"},{"inputs":[{"internalType":"address","name":"operator","type":"address"},{"internalType":"bool","name":"approved","type":"bool"}],"name":"setApprovalForAll","outputs":[],"stateMutability":"nonpayable","type":"function"},{"inputs":[{"internalType":"bytes4","name":"iid","type":"bytes4"}],"name":"supportsInterface","outputs":[{"internalType":"bool","name":"","type":"bool"}],"stateMutability":"view","type":"function"},{"inputs":[],"name":"symbol","outputs":[{"internalType":"string","name":"","type":"string"}],"stateMutability":"view","type":"function"},{"inputs":[{"internalType":"uint256","name":"tokenId","type":"uint256"}],"name":"tokenURI","outputs":[{"internalType":"string","name":"","type":"string"}],"stateMutability":"view","type":"function"},{"inputs":[],"name":"totalReceived","outputs":[{"internalType":"uint256","name":"","type":"uint256"}],"stateMutability":"view","type":"function"},{"inputs":[{"internalType":"address","name":"from","type":"address"},{"internalType":"address","name":"to","type":"address"},{"internalType":"uint256","name":"tokenId","type":"uint256"}],"name":"transferFrom","outputs":[],"stateMutability":"nonpayable","type":"function"},{"inputs":[{"internalType":"address","name":"newOwner","type":"address"}],"name":"transferOwnership","outputs":[],"stateMutability":"nonpayable","type":"function"},{"stateMutability":"payable","type":"receive"}],"evm":{"bytecode":{"linkReferences":{},"object":"60806040523480156200001157600080fd5b506040516200213838038062002138833981016040819052620000349162000140565b806040518060400160405280601481526020017f4c656e73576561766520436f6c6c656374697665000000000000000000000000815250604051806040016040528060058152602001644c454e535760d81b81525081600090816200009a919062000219565b506001620000a9828262000219565b5050506001600160a01b038116620000db57604051631e4fbdf760e01b81526000600482015260240160405180910390fd5b620000e681620000ee565b5050620002e5565b600880546001600160a01b038381166001600160a01b0319831681179093556040519116919082907f8be0079c531659141344cd1fd0a4f28419497f9722a3daafe3b4186f6b6457e090600090a35050565b6000602082840312156200015357600080fd5b81516001600160a01b03811681146200016b57600080fd5b9392505050565b634e487b7160e01b600052604160045260246000fd5b600181811c908216806200019d57607f821691505b602082108103620001be57634e487b7160e01b600052602260045260246000fd5b50919050565b601f82111562000214576000816000526020600020601f850160051c81016020861015620001ef5750805b601f850160051c820191505b818110156200021057828155600101620001fb565b5050505b505050565b81516001600160401b0381111562000235576200023562000172565b6200024d8162000246845462000188565b84620001c4565b602080601f8311600181146200028557600084156200026c5750858301515b600019600386901b1c1916600185901b17855562000210565b600085815260208120601f198616915b82811015620002b65788860151825594840194600190910190840162000295565b5085821015620002d55787850151600019600388901b60f8161c191681555b5050505050600190811b01905550565b611e4380620002f56000396000f3fe6080604052600436106101445760003560e01c8063715018a6116100b6578063a3c2c4621161006f578063a3c2c462146103dd578063b88d4fde146103f3578063c87b56dd14610413578063d0e30db014610433578063e985e9c51461043b578063f2fde38b1461045b57600080fd5b8063715018a6146103285780637c8dd1cf1461033d5780638da5cb5b1461035d57806395d89b411461037b5780639852595c14610390578063a22cb465146103bd57600080fd5b80632a55205a116101085780632a55205a146102395780632a5768b71461027857806342842e0e146102a55780634e71d92d146102c55780636352211e146102da57806370a08231146102fa57600080fd5b806301ffc9a71461016857806306fdde031461019d578063081812fc146101bf578063095ea7b3146101f757806323b872dd1461021957600080fd5b366101635734600b600082825461015b9190611667565b925050819055005b600080fd5b34801561017457600080fd5b50610188610183366004611690565b61047b565b60405190151581526020015b60405180910390f35b3480156101a957600080fd5b506101b261048c565b60405161019491906116fa565b3480156101cb57600080fd5b506101df6101da36600461170d565b61051e565b6040516001600160a01b039091168152602001610194565b34801561020357600080fd5b50610217610212366004611742565b610547565b005b34801561022557600080fd5b5061021761023436600461176c565b610556565b34801561024557600080fd5b506102596102543660046117a8565b6105e6565b604080516001600160a01b039093168352602083019190915201610194565b34801561028457600080fd5b5061029861029336600461170d565b61066d565b60405161019491906117ca565b3480156102b157600080fd5b506102176102c036600461176c565b6106fc565b3480156102d157600080fd5b5061021761071c565b3480156102e657600080fd5b506101df6102f536600461170d565b610888565b34801561030657600080fd5b5061031a61031536600461182b565b610893565b604051908152602001610194565b34801561033457600080fd5b506102176108db565b34801561034957600080fd5b5061031a6103583660046118a2565b6108ef565b34801561036957600080fd5b506008546001600160a01b03166101df565b34801561038757600080fd5b506101b2610c48565b34801561039c57600080fd5b5061031a6103ab36600461182b565b600c6020526000908152604090205481565b3480156103c957600080fd5b506102176103d8366004611988565b610c57565b3480156103e957600080fd5b5061031a600b5481565b3480156103ff57600080fd5b5061021761040e3660046119da565b610c62565b34801561041f57600080fd5b506101b261042e36600461170d565b610c7a565b610217610d24565b34801561044757600080fd5b50610188610456366004611ab6565b610d78565b34801561046757600080fd5b5061021761047636600461182b565b610da6565b600061048682610de4565b92915050565b60606000805461049b90611ae9565b80601f01602080910402602001604051908101604052809291908181526020018280546104c790611ae9565b80156105145780601f106104e957610100808354040283529160200191610514565b820191906000526020600020905b8154815290600101906020018083116104f757829003601f168201915b5050505050905090565b600061052982610e09565b506000828152600460205260409020546001600160a01b0316610486565b610552828233610e42565b5050565b6001600160a01b03821661058557604051633250574960e11b8152600060048201526024015b60405180910390fd5b6000610592838333610e4f565b9050836001600160a01b0316816001600160a01b0316146105e0576040516364283d7b60e01b81526001600160a01b038086166004830152602482018490528216604482015260640161057c565b50505050565b600082815260076020526040812080548291906001600160a01b03811690600160a01b90046001600160601b03168161063a5750506006546001600160a01b03811690600160a01b90046001600160601b03165b60006127106106526001600160601b03841689611b23565b61065c9190611b3a565b9295509193505050505b9250929050565b606061067882610e09565b506000828152600a6020908152604080832080548251818502810185019093528083529193909284015b828210156106f157600084815260209081902060408051808201909152908401546001600160a01b0381168252600160a01b90046001600160601b0316818301528252600190920191016106a2565b505050509050919050565b61071783838360405180602001604052806000815250610c62565b505050565b600061072733610f48565b9050600081116107695760405162461bcd60e51b815260206004820152600d60248201526c2737ba10309031b932b0ba37b960991b604482015260640161057c565b600061271082600b5461077c9190611b23565b6107869190611b3a565b336000908152600c60205260409020549091508082116107db5760405162461bcd60e51b815260206004820152601060248201526f4e6f7468696e6720746f20636c61696d60801b604482015260640161057c565b60006107e78284611b5c565b336000818152600c6020526040808220879055519293509183908381818185875af1925050503d8060008114610839576040519150601f19603f3d011682016040523d82523d6000602084013e61083e565b606091505b50509050806108815760405162461bcd60e51b815260206004820152600f60248201526e151c985b9cd9995c8819985a5b1959608a1b604482015260640161057c565b5050505050565b600061048682610e09565b60006001600160a01b0382166108bf576040516322718ad960e21b81526000600482015260240161057c565b506001600160a01b031660009081526003602052604090205490565b6108e3611090565b6108ed60006110bd565b565b60006108f9611090565b856109345760405162461bcd60e51b815260206004820152600b60248201526a4e6f2063726561746f727360a81b604482015260640161057c565b8584146109755760405162461bcd60e51b815260206004820152600f60248201526e098cadccee8d040dad2e6dac2e8c6d608b1b604482015260640161057c565b6103e8836001600160601b031611156109d05760405162461bcd60e51b815260206004820152601760248201527f526f79616c747920746f6f206869676820283e31302529000000000000000000604482015260640161057c565b6000805b85811015610a8e578686828181106109ee576109ee611b6f565b9050602002016020810190610a039190611b85565b610a16906001600160601b031683611667565b91506000898983818110610a2c57610a2c611b6f565b9050602002016020810190610a41919061182b565b6001600160a01b031603610a865760405162461bcd60e51b815260206004820152600c60248201526b2d32b9379031b932b0ba37b960a11b604482015260640161057c565b6001016109d4565b508061271014610ae05760405162461bcd60e51b815260206004820152601c60248201527f536861726573206d7573742073756d20746f2031303030302062707300000000604482015260640161057c565b600d60008154610aef90611ba0565b91829055509150610b00838361110f565b6000828152600960205260409020610b198a8c83611c01565b5060005b87811015610beb57600a600084815260200190815260200160002060405180604001604052808b8b85818110610b5557610b55611b6f565b9050602002016020810190610b6a919061182b565b6001600160a01b03168152602001898985818110610b8a57610b8a611b6f565b9050602002016020810190610b9f9190611b85565b6001600160601b03908116909152825460018181018555600094855260209485902084519590940151909216600160a01b026001600160a01b0390941693909317919092015501610b1d565b50610bf7823086611129565b817ff7ae5e4ad17c6d4b578fa3cfeeba5977be5359936c2dec063c343d640d63eacd8b8b8b8b8b8b8b604051610c339796959493929190611d08565b60405180910390a25098975050505050505050565b60606001805461049b90611ae9565b6105523383836111eb565b610c6d848484610556565b6105e0338585858561128a565b6060610c8582610e09565b5060008281526009602052604090208054610c9f90611ae9565b80601f0160208091040260200160405190810160405280929190818152602001828054610ccb90611ae9565b8015610d185780601f10610ced57610100808354040283529160200191610d18565b820191906000526020600020905b815481529060010190602001808311610cfb57829003601f168201915b50505050509050919050565b60003411610d5f5760405162461bcd60e51b81526020600482015260086024820152674e6f2076616c756560c01b604482015260640161057c565b34600b6000828254610d719190611667565b9091555050565b6001600160a01b03918216600090815260056020908152604080832093909416825291909152205460ff1690565b610dae611090565b6001600160a01b038116610dd857604051631e4fbdf760e01b81526000600482015260240161057c565b610de1816110bd565b50565b60006001600160e01b0319821663152a902d60e11b14806104865750610486826113b4565b6000818152600260205260408120546001600160a01b03168061048657604051637e27328960e01b81526004810184905260240161057c565b6107178383836001611404565b6000828152600260205260408120546001600160a01b0390811690831615610e7c57610e7c81848661150a565b6001600160a01b03811615610eba57610e99600085600080611404565b6001600160a01b038116600090815260036020526040902080546000190190555b6001600160a01b03851615610ee9576001600160a01b0385166000908152600360205260409020805460010190555b60008481526002602052604080822080546001600160a01b0319166001600160a01b0389811691821790925591518793918516917fddf252ad1be2c89b69c2b068fc378daa952ba7f163c4a11628f55a4df523b3ef91a4949350505050565b60008060015b600d548111611089576000818152600260205260409020546001600160a01b031615611077576000818152600a6020908152604080832080548251818502810185019093528083529192909190849084015b82821015610fef57600084815260209081902060408051808201909152908401546001600160a01b0381168252600160a01b90046001600160601b031681830152825260019092019101610fa0565b50505050905060005b815181101561107457856001600160a01b031682828151811061101d5761101d611b6f565b6020026020010151600001516001600160a01b03160361106c5781818151811061104957611049611b6f565b6020026020010151602001516001600160601b0316846110699190611667565b93505b600101610ff8565b50505b8061108181611ba0565b915050610f4e565b5092915050565b6008546001600160a01b031633146108ed5760405163118cdaa760e01b815233600482015260240161057c565b600880546001600160a01b038381166001600160a01b0319831681179093556040519116919082907f8be0079c531659141344cd1fd0a4f28419497f9722a3daafe3b4186f6b6457e090600090a35050565b61055282826040518060200160405280600081525061156e565b6127106001600160601b03821681101561116f5760405163dfd1fc1b60e01b8152600481018590526001600160601b03831660248201526044810182905260640161057c565b6001600160a01b0383166111a057604051634b4f842960e11b8152600481018590526000602482015260440161057c565b506040805180820182526001600160a01b0393841681526001600160601b0392831660208083019182526000968752600790529190942093519051909116600160a01b029116179055565b6001600160a01b03821661121d57604051630b61174360e31b81526001600160a01b038316600482015260240161057c565b6001600160a01b03838116600081815260056020908152604080832094871680845294825291829020805460ff191686151590811790915591519182527f17307eab39ab6107e8899845ad3d59bd9653f200f220920489ca2b5937696c31910160405180910390a3505050565b6001600160a01b0383163b1561088157604051630a85bd0160e11b81526001600160a01b0384169063150b7a02906112cc908890889087908790600401611db3565b6020604051808303816000875af1925050508015611307575060408051601f3d908101601f1916820190925261130491810190611df0565b60015b611370573d808015611335576040519150601f19603f3d011682016040523d82523d6000602084013e61133a565b606091505b50805160000361136857604051633250574960e11b81526001600160a01b038516600482015260240161057c565b805160208201fd5b6001600160e01b03198116630a85bd0160e11b146113ac57604051633250574960e11b81526001600160a01b038516600482015260240161057c565b505050505050565b60006001600160e01b031982166380ac58cd60e01b14806113e557506001600160e01b03198216635b5e139f60e01b145b8061048657506301ffc9a760e01b6001600160e01b0319831614610486565b808061141857506001600160a01b03821615155b156114da57600061142884610e09565b90506001600160a01b038316158015906114545750826001600160a01b0316816001600160a01b031614155b801561146757506114658184610d78565b155b156114905760405163a9fbf51f60e01b81526001600160a01b038416600482015260240161057c565b81156114d85783856001600160a01b0316826001600160a01b03167f8c5be1e5ebec7d5bd14f71427d1e84f3dd0314c0f7b2291e5b200ac8c7c3b92560405160405180910390a45b505b5050600090815260046020526040902080546001600160a01b0319166001600160a01b0392909216919091179055565b611515838383611586565b610717576001600160a01b03831661154357604051637e27328960e01b81526004810182905260240161057c565b60405163177e802f60e01b81526001600160a01b03831660048201526024810182905260440161057c565b61157883836115ec565b61071733600085858561128a565b60006001600160a01b038316158015906115e45750826001600160a01b0316846001600160a01b031614806115c057506115c08484610d78565b806115e457506000828152600460205260409020546001600160a01b038481169116145b949350505050565b6001600160a01b03821661161657604051633250574960e11b81526000600482015260240161057c565b600061162483836000610e4f565b90506001600160a01b03811615610717576040516339e3563760e11b81526000600482015260240161057c565b634e487b7160e01b600052601160045260246000fd5b8082018082111561048657610486611651565b6001600160e01b031981168114610de157600080fd5b6000602082840312156116a257600080fd5b81356116ad8161167a565b9392505050565b6000815180845260005b818110156116da576020818501810151868301820152016116be565b506000602082860101526020601f19601f83011685010191505092915050565b6020815260006116ad60208301846116b4565b60006020828403121561171f57600080fd5b5035919050565b80356001600160a01b038116811461173d57600080fd5b919050565b6000806040838503121561175557600080fd5b61175e83611726565b946020939093013593505050565b60008060006060848603121561178157600080fd5b61178a84611726565b925061179860208501611726565b9150604084013590509250925092565b600080604083850312156117bb57600080fd5b50508035926020909101359150565b602080825282518282018190526000919060409081850190868401855b8281101561181e57815180516001600160a01b031685528601516001600160601b03168685015292840192908501906001016117e7565b5091979650505050505050565b60006020828403121561183d57600080fd5b6116ad82611726565b60008083601f84011261185857600080fd5b50813567ffffffffffffffff81111561187057600080fd5b6020830191508360208260051b850101111561066657600080fd5b80356001600160601b038116811461173d57600080fd5b60008060008060008060008060a0898b0312156118be57600080fd5b883567ffffffffffffffff808211156118d657600080fd5b818b0191508b601f8301126118ea57600080fd5b8135818111156118f957600080fd5b8c602082850101111561190b57600080fd5b60209283019a509850908a0135908082111561192657600080fd5b6119328c838d01611846565b909850965060408b013591508082111561194b57600080fd5b506119588b828c01611846565b909550935061196b905060608a0161188b565b915061197960808a01611726565b90509295985092959890939650565b6000806040838503121561199b57600080fd5b6119a483611726565b9150602083013580151581146119b957600080fd5b809150509250929050565b634e487b7160e01b600052604160045260246000fd5b600080600080608085870312156119f057600080fd5b6119f985611726565b9350611a0760208601611726565b925060408501359150606085013567ffffffffffffffff80821115611a2b57600080fd5b818701915087601f830112611a3f57600080fd5b813581811115611a5157611a516119c4565b604051601f8201601f19908116603f01168101908382118183101715611a7957611a796119c4565b816040528281528a6020848701011115611a9257600080fd5b82602086016020830137600060208483010152809550505050505092959194509250565b60008060408385031215611ac957600080fd5b611ad283611726565b9150611ae060208401611726565b90509250929050565b600181811c90821680611afd57607f821691505b602082108103611b1d57634e487b7160e01b600052602260045260246000fd5b50919050565b808202811582820484141761048657610486611651565b600082611b5757634e487b7160e01b600052601260045260246000fd5b500490565b8181038181111561048657610486611651565b634e487b7160e01b600052603260045260246000fd5b600060208284031215611b9757600080fd5b6116ad8261188b565b600060018201611bb257611bb2611651565b5060010190565b601f821115610717576000816000526020600020601f850160051c81016020861015611be25750805b601f850160051c820191505b818110156113ac57828155600101611bee565b67ffffffffffffffff831115611c1957611c196119c4565b611c2d83611c278354611ae9565b83611bb9565b6000601f841160018114611c615760008515611c495750838201355b600019600387901b1c1916600186901b178355610881565b600083815260209020601f19861690835b82811015611c925786850135825560209485019460019092019101611c72565b5086821015611caf5760001960f88860031b161c19848701351681555b505060018560011b0183555050505050565b8183526000602080850194508260005b85811015611cfd576001600160601b03611cea8361188b565b1687529582019590820190600101611cd1565b509495945050505050565b60808152866080820152868860a0830137600060a08883018101829052601f19601f8a0116830183810382016020808601919091529181018890528891839160c0015b89831015611d79576001600160a01b03611d6485611726565b16815292810192600192909201918101611d4b565b8581036040870152611d8c81898b611cc1565b945050505050611da760608301846001600160601b03169052565b98975050505050505050565b6001600160a01b0385811682528416602082015260408101839052608060608201819052600090611de6908301846116b4565b9695505050505050565b600060208284031215611e0257600080fd5b81516116ad8161167a56fea2646970667358221220a47f8ca771ddefe2e2948c2bfd074c193f82cd00775efa880a5e93e7c926fe5a64736f6c63430008180033","opcodes":"PUSH1 0x80 PUSH1 0x40 MSTORE CALLVALUE DUP1 ISZERO PUSH3 0x11 JUMPI PUSH1 0x0 DUP1 REVERT JUMPDEST POP PUSH1 0x40 MLOAD PUSH3 0x2138 CODESIZE SUB DUP1 PUSH3 0x2138 DUP4 CODECOPY DUP2 ADD PUSH1 0x40 DUP2 SWAP1 MSTORE PUSH3 0x34 SWAP2 PUSH3 0x140 JUMP JUMPDEST DUP1 PUSH1 0x40 MLOAD DUP1 PUSH1 0x40 ADD PUSH1 0x40 MSTORE DUP1 PUSH1 0x14 DUP2 MSTORE PUSH1 0x20 ADD PUSH32 0x4C656E73576561766520436F6C6C656374697665000000000000000000000000 DUP2 MSTORE POP PUSH1 0x40 MLOAD DUP1 PUSH1 0x40 ADD PUSH1 0x40 MSTORE DUP1 PUSH1 0x5 DUP2 MSTORE PUSH1 0x20 ADD PUSH5 0x4C454E5357 PUSH1 0xD8 SHL DUP2 MSTORE POP DUP2 PUSH1 0x0 SWAP1 DUP2 PUSH3 0x9A SWAP2 SWAP1 PUSH3 0x219 JUMP JUMPDEST POP PUSH1 0x1 PUSH3 0xA9 DUP3 DUP3 PUSH3 0x219 JUMP JUMPDEST POP POP POP PUSH1 0x1 PUSH1 0x1 PUSH1 0xA0 SHL SUB DUP2 AND PUSH3 0xDB JUMPI PUSH1 0x40 MLOAD PUSH4 0x1E4FBDF7 PUSH1 0xE0 SHL DUP2 MSTORE PUSH1 0x0 PUSH1 0x4 DUP3 ADD MSTORE PUSH1 0x24 ADD PUSH1 0x40 MLOAD DUP1 SWAP2 SUB SWAP1 REVERT JUMPDEST PUSH3 0xE6 DUP2 PUSH3 0xEE JUMP JUMPDEST POP POP PUSH3 0x2E5 JUMP JUMPDEST PUSH1 0x8 DUP1 SLOAD PUSH1 0x1 PUSH1 0x1 PUSH1 0xA0 SHL SUB DUP4 DUP2 AND PUSH1 0x1 PUSH1 0x1 PUSH1 0xA0 SHL SUB NOT DUP4 AND DUP2 OR SWAP1 SWAP4 SSTORE PUSH1 0x40 MLOAD SWAP2 AND SWAP2 SWAP1 DUP3 SWAP1 PUSH32 0x8BE0079C531659141344CD1FD0A4F28419497F9722A3DAAFE3B4186F6B6457E0 SWAP1 PUSH1 0x0 SWAP1 LOG3 POP POP JUMP JUMPDEST PUSH1 0x0 PUSH1 0x20 DUP3 DUP5 SUB SLT ISZERO PUSH3 0x153 JUMPI PUSH1 0x0 DUP1 REVERT JUMPDEST DUP2 MLOAD PUSH1 0x1 PUSH1 0x1 PUSH1 0xA0 SHL SUB DUP2 AND DUP2 EQ PUSH3 0x16B JUMPI PUSH1 0x0 DUP1 REVERT JUMPDEST SWAP4 SWAP3 POP POP POP JUMP JUMPDEST PUSH4 0x4E487B71 PUSH1 0xE0 SHL PUSH1 0x0 MSTORE PUSH1 0x41 PUSH1 0x4 MSTORE PUSH1 0x24 PUSH1 0x0 REVERT JUMPDEST PUSH1 0x1 DUP2 DUP2 SHR SWAP1 DUP3 AND DUP1 PUSH3 0x19D JUMPI PUSH1 0x7F DUP3 AND SWAP2 POP JUMPDEST PUSH1 0x20 DUP3 LT DUP2 SUB PUSH3 0x1BE JUMPI PUSH4 0x4E487B71 PUSH1 0xE0 SHL PUSH1 0x0 MSTORE PUSH1 0x22 PUSH1 0x4 MSTORE PUSH1 0x24 PUSH1 0x0 REVERT JUMPDEST POP SWAP2 SWAP1 POP JUMP JUMPDEST PUSH1 0x1F DUP3 GT ISZERO PUSH3 0x214 JUMPI PUSH1 0x0 DUP2 PUSH1 0x0 MSTORE PUSH1 0x20 PUSH1 0x0 KECCAK256 PUSH1 0x1F DUP6 ADD PUSH1 0x5 SHR DUP2 ADD PUSH1 0x20 DUP7 LT ISZERO PUSH3 0x1EF JUMPI POP DUP1 JUMPDEST PUSH1 0x1F DUP6 ADD PUSH1 0x5 SHR DUP3 ADD SWAP2 POP JUMPDEST DUP2 DUP2 LT ISZERO PUSH3 0x210 JUMPI DUP3 DUP2 SSTORE PUSH1 0x1 ADD PUSH3 0x1FB JUMP JUMPDEST POP POP POP JUMPDEST POP POP POP JUMP JUMPDEST DUP2 MLOAD PUSH1 0x1 PUSH1 0x1 PUSH1 0x40 SHL SUB DUP2 GT ISZERO PUSH3 0x235 JUMPI PUSH3 0x235 PUSH3 0x172 JUMP JUMPDEST PUSH3 0x24D DUP2 PUSH3 0x246 DUP5 SLOAD PUSH3 0x188 JUMP JUMPDEST DUP5 PUSH3 0x1C4 JUMP JUMPDEST PUSH1 0x20 DUP1 PUSH1 0x1F DUP4 GT PUSH1 0x1 DUP2 EQ PUSH3 0x285 JUMPI PUSH1 0x0 DUP5 ISZERO PUSH3 0x26C JUMPI POP DUP6 DUP4 ADD MLOAD JUMPDEST PUSH1 0x0 NOT PUSH1 0x3 DUP7 SWAP1 SHL SHR NOT AND PUSH1 0x1 DUP6 SWAP1 SHL OR DUP6 SSTORE PUSH3 0x210 JUMP JUMPDEST PUSH1 0x0 DUP6 DUP2 MSTORE PUSH1 0x20 DUP2 KECCAK256 PUSH1 0x1F NOT DUP7 AND SWAP2 JUMPDEST DUP3 DUP2 LT ISZERO PUSH3 0x2B6 JUMPI DUP9 DUP7 ADD MLOAD DUP3 SSTORE SWAP5 DUP5 ADD SWAP5 PUSH1 0x1 SWAP1 SWAP2 ADD SWAP1 DUP5 ADD PUSH3 0x295 JUMP JUMPDEST POP DUP6 DUP3 LT ISZERO PUSH3 0x2D5 JUMPI DUP8 DUP6 ADD MLOAD PUSH1 0x0 NOT PUSH1 0x3 DUP9 SWAP1 SHL PUSH1 0xF8 AND SHR NOT AND DUP2 SSTORE JUMPDEST POP POP POP POP POP PUSH1 0x1 SWAP1 DUP2 SHL ADD SWAP1 SSTORE POP JUMP JUMPDEST PUSH2 0x1E43 DUP1 PUSH3 0x2F5 PUSH1 0x0 CODECOPY PUSH1 0x0 RETURN INVALID PUSH1 0x80 PUSH1 0x40 MSTORE PUSH1 0x4 CALLDATASIZE LT PUSH2 0x144 JUMPI PUSH1 0x0 CALLDATALOAD PUSH1 0xE0 SHR DUP1 PUSH4 0x715018A6 GT PUSH2 0xB6 JUMPI DUP1 PUSH4 0xA3C2C462 GT PUSH2 0x6F JUMPI DUP1 PUSH4 0xA3C2C462 EQ PUSH2 0x3DD JUMPI DUP1 PUSH4 0xB88D4FDE EQ PUSH2 0x3F3 JUMPI DUP1 PUSH4 0xC87B56DD EQ PUSH2 0x413 JUMPI DUP1 PUSH4 0xD0E30DB0 EQ PUSH2 0x433 JUMPI DUP1 PUSH4 0xE985E9C5 EQ PUSH2 0x43B JUMPI DUP1 PUSH4 0xF2FDE38B EQ PUSH2 0x45B JUMPI PUSH1 0x0 DUP1 REVERT JUMPDEST DUP1 PUSH4 0x715018A6 EQ PUSH2 0x328 JUMPI DUP1 PUSH4 0x7C8DD1CF EQ PUSH2 0x33D JUMPI DUP1 PUSH4 0x8DA5CB5B EQ PUSH2 0x35D JUMPI DUP1 PUSH4 0x95D89B41 EQ PUSH2 0x37B JUMPI DUP1 PUSH4 0x9852595C EQ PUSH2 0x390 JUMPI DUP1 PUSH4 0xA22CB465 EQ PUSH2 0x3BD JUMPI PUSH1 0x0 DUP1 REVERT JUMPDEST DUP1 PUSH4 0x2A55205A GT PUSH2 0x108 JUMPI DUP1 PUSH4 0x2A55205A EQ PUSH2 0x239 JUMPI DUP1 PUSH4 0x2A5768B7 EQ PUSH2 0x278 JUMPI DUP1 PUSH4 0x42842E0E EQ PUSH2 0x2A5 JUMPI DUP1 PUSH4 0x4E71D92D EQ PUSH2 0x2C5 JUMPI DUP1 PUSH4 0x6352211E EQ PUSH2 0x2DA JUMPI DUP1 PUSH4 0x70A08231 EQ PUSH2 0x2FA JUMPI PUSH1 0x0 DUP1 REVERT JUMPDEST DUP1 PUSH4 0x1FFC9A7 EQ PUSH2 0x168 JUMPI DUP1 PUSH4 0x6FDDE03 EQ PUSH2 0x19D JUMPI DUP1 PUSH4 0x81812FC EQ PUSH2 0x1BF JUMPI DUP1 PUSH4 0x95EA7B3 EQ PUSH2 0x1F7 JUMPI DUP1 PUSH4 0x23B872DD EQ PUSH2 0x219 JUMPI PUSH1 0x0 DUP1 REVERT JUMPDEST CALLDATASIZE PUSH2 0x163 JUMPI CALLVALUE PUSH1 0xB PUSH1 0x0 DUP3 DUP3 SLOAD PUSH2 0x15B SWAP2 SWAP1 PUSH2 0x1667 JUMP JUMPDEST SWAP3 POP POP DUP2 SWAP1 SSTORE STOP JUMPDEST PUSH1 0x0 DUP1 REVERT JUMPDEST CALLVALUE DUP1 ISZERO PUSH2 0x174 JUMPI PUSH1 0x0 DUP1 REVERT JUMPDEST POP PUSH2 0x188 PUSH2 0x183 CALLDATASIZE PUSH1 0x4 PUSH2 0x1690 JUMP JUMPDEST PUSH2 0x47B JUMP JUMPDEST PUSH1 0x40 MLOAD SWAP1 ISZERO ISZERO DUP2 MSTORE PUSH1 0x20 ADD JUMPDEST PUSH1 0x40 MLOAD DUP1 SWAP2 SUB SWAP1 RETURN JUMPDEST CALLVALUE DUP1 ISZERO PUSH2 0x1A9 JUMPI PUSH1 0x0 DUP1 REVERT JUMPDEST POP PUSH2 0x1B2 PUSH2 0x48C JUMP JUMPDEST PUSH1 0x40 MLOAD PUSH2 0x194 SWAP2 SWAP1 PUSH2 0x16FA JUMP JUMPDEST CALLVALUE DUP1 ISZERO PUSH2 0x1CB JUMPI PUSH1 0x0 DUP1 REVERT JUMPDEST POP PUSH2 0x1DF PUSH2 0x1DA CALLDATASIZE PUSH1 0x4 PUSH2 0x170D JUMP JUMPDEST PUSH2 0x51E JUMP JUMPDEST PUSH1 0x40 MLOAD PUSH1 0x1 PUSH1 0x1 PUSH1 0xA0 SHL SUB SWAP1 SWAP2 AND DUP2 MSTORE PUSH1 0x20 ADD PUSH2 0x194 JUMP JUMPDEST CALLVALUE DUP1 ISZERO PUSH2 0x203 JUMPI PUSH1 0x0 DUP1 REVERT JUMPDEST POP PUSH2 0x217 PUSH2 0x212 CALLDATASIZE PUSH1 0x4 PUSH2 0x1742 JUMP JUMPDEST PUSH2 0x547 JUMP JUMPDEST STOP JUMPDEST CALLVALUE DUP1 ISZERO PUSH2 0x225 JUMPI PUSH1 0x0 DUP1 REVERT JUMPDEST POP PUSH2 0x217 PUSH2 0x234 CALLDATASIZE PUSH1 0x4 PUSH2 0x176C JUMP JUMPDEST PUSH2 0x556 JUMP JUMPDEST CALLVALUE DUP1 ISZERO PUSH2 0x245 JUMPI PUSH1 0x0 DUP1 REVERT JUMPDEST POP PUSH2 0x259 PUSH2 0x254 CALLDATASIZE PUSH1 0x4 PUSH2 0x17A8 JUMP JUMPDEST PUSH2 0x5E6 JUMP JUMPDEST PUSH1 0x40 DUP1 MLOAD PUSH1 0x1 PUSH1 0x1 PUSH1 0xA0 SHL SUB SWAP1 SWAP4 AND DUP4 MSTORE PUSH1 0x20 DUP4 ADD SWAP2 SWAP1 SWAP2 MSTORE ADD PUSH2 0x194 JUMP JUMPDEST CALLVALUE DUP1 ISZERO PUSH2 0x284 JUMPI PUSH1 0x0 DUP1 REVERT JUMPDEST POP PUSH2 0x298 PUSH2 0x293 CALLDATASIZE PUSH1 0x4 PUSH2 0x170D JUMP JUMPDEST PUSH2 0x66D JUMP JUMPDEST PUSH1 0x40 MLOAD PUSH2 0x194 SWAP2 SWAP1 PUSH2 0x17CA JUMP JUMPDEST CALLVALUE DUP1 ISZERO PUSH2 0x2B1 JUMPI PUSH1 0x0 DUP1 REVERT JUMPDEST POP PUSH2 0x217 PUSH2 0x2C0 CALLDATASIZE PUSH1 0x4 PUSH2 0x176C JUMP JUMPDEST PUSH2 0x6FC JUMP JUMPDEST CALLVALUE DUP1 ISZERO PUSH2 0x2D1 JUMPI PUSH1 0x0 DUP1 REVERT JUMPDEST POP PUSH2 0x217 PUSH2 0x71C JUMP JUMPDEST CALLVALUE DUP1 ISZERO PUSH2 0x2E6 JUMPI PUSH1 0x0 DUP1 REVERT JUMPDEST POP PUSH2 0x1DF PUSH2 0x2F5 CALLDATASIZE PUSH1 0x4 PUSH2 0x170D JUMP JUMPDEST PUSH2 0x888 JUMP JUMPDEST CALLVALUE DUP1 ISZERO PUSH2 0x306 JUMPI PUSH1 0x0 DUP1 REVERT JUMPDEST POP PUSH2 0x31A PUSH2 0x315 CALLDATASIZE PUSH1 0x4 PUSH2 0x182B JUMP JUMPDEST PUSH2 0x893 JUMP JUMPDEST PUSH1 0x40 MLOAD SWAP1 DUP2 MSTORE PUSH1 0x20 ADD PUSH2 0x194 JUMP JUMPDEST CALLVALUE DUP1 ISZERO PUSH2 0x334 JUMPI PUSH1 0x0 DUP1 REVERT JUMPDEST POP PUSH2 0x217 PUSH2 0x8DB JUMP JUMPDEST CALLVALUE DUP1 ISZERO PUSH2 0x349 JUMPI PUSH1 0x0 DUP1 REVERT JUMPDEST POP PUSH2 0x31A PUSH2 0x358 CALLDATASIZE PUSH1 0x4 PUSH2 0x18A2 JUMP JUMPDEST PUSH2 0x8EF JUMP JUMPDEST CALLVALUE DUP1 ISZERO PUSH2 0x369 JUMPI PUSH1 0x0 DUP1 REVERT JUMPDEST POP PUSH1 0x8 SLOAD PUSH1 0x1 PUSH1 0x1 PUSH1 0xA0 SHL SUB AND PUSH2 0x1DF JUMP JUMPDEST CALLVALUE DUP1 ISZERO PUSH2 0x387 JUMPI PUSH1 0x0 DUP1 REVERT JUMPDEST POP PUSH2 0x1B2 PUSH2 0xC48 JUMP JUMPDEST CALLVALUE DUP1 ISZERO PUSH2 0x39C JUMPI PUSH1 0x0 DUP1 REVERT JUMPDEST POP PUSH2 0x31A PUSH2 0x3AB CALLDATASIZE PUSH1 0x4 PUSH2 0x182B JUMP JUMPDEST PUSH1 0xC PUSH1 0x20 MSTORE PUSH1 0x0 SWAP1 DUP2 MSTORE PUSH1 0x40 SWAP1 KECCAK256 SLOAD DUP2 JUMP JUMPDEST CALLVALUE DUP1 ISZERO PUSH2 0x3C9 JUMPI PUSH1 0x0 DUP1 REVERT JUMPDEST POP PUSH2 0x217 PUSH2 0x3D8 CALLDATASIZE PUSH1 0x4 PUSH2 0x1988 JUMP JUMPDEST PUSH2 0xC57 JUMP JUMPDEST CALLVALUE DUP1 ISZERO PUSH2 0x3E9 JUMPI PUSH1 0x0 DUP1 REVERT JUMPDEST POP PUSH2 0x31A PUSH1 0xB SLOAD DUP2 JUMP JUMPDEST CALLVALUE DUP1 ISZERO PUSH2 0x3FF JUMPI PUSH1 0x0 DUP1 REVERT JUMPDEST POP PUSH2 0x217 PUSH2 0x40E CALLDATASIZE PUSH1 0x4 PUSH2 0x19DA JUMP JUMPDEST PUSH2 0xC62 JUMP JUMPDEST CALLVALUE DUP1 ISZERO PUSH2 0x41F JUMPI PUSH1 0x0 DUP1 REVERT JUMPDEST POP PUSH2 0x1B2 PUSH2 0x42E CALLDATASIZE PUSH1 0x4 PUSH2 0x170D JUMP JUMPDEST PUSH2 0xC7A JUMP JUMPDEST PUSH2 0x217 PUSH2 0xD24 JUMP JUMPDEST CALLVALUE DUP1 ISZERO PUSH2 0x447 JUMPI PUSH1 0x0 DUP1 REVERT JUMPDEST POP PUSH2 0x188 PUSH2 0x456 CALLDATASIZE PUSH1 0x4 PUSH2 0x1AB6 JUMP JUMPDEST PUSH2 0xD78 JUMP JUMPDEST CALLVALUE DUP1 ISZERO PUSH2 0x467 JUMPI PUSH1 0x0 DUP1 REVERT JUMPDEST POP PUSH2 0x217 PUSH2 0x476 CALLDATASIZE PUSH1 0x4 PUSH2 0x182B JUMP JUMPDEST PUSH2 0xDA6 JUMP JUMPDEST PUSH1 0x0 PUSH2 0x486 DUP3 PUSH2 0xDE4 JUMP JUMPDEST SWAP3 SWAP2 POP POP JUMP JUMPDEST PUSH1 0x60 PUSH1 0x0 DUP1 SLOAD PUSH2 0x49B SWAP1 PUSH2 0x1AE9 JUMP JUMPDEST DUP1 PUSH1 0x1F ADD PUSH1 0x20 DUP1 SWAP2 DIV MUL PUSH1 0x20 ADD PUSH1 0x40 MLOAD SWAP1 DUP2 ADD PUSH1 0x40 MSTORE DUP1 SWAP3 SWAP2 SWAP1 DUP2 DUP2 MSTORE PUSH1 0x20 ADD DUP3 DUP1 SLOAD PUSH2 0x4C7 SWAP1 PUSH2 0x1AE9 JUMP JUMPDEST DUP1 ISZERO PUSH2 0x514 JUMPI DUP1 PUSH1 0x1F LT PUSH2 0x4E9 JUMPI PUSH2 0x100 DUP1 DUP4 SLOAD DIV MUL DUP4 MSTORE SWAP2 PUSH1 0x20 ADD SWAP2 PUSH2 0x514 JUMP JUMPDEST DUP3 ADD SWAP2 SWAP1 PUSH1 0x0 MSTORE PUSH1 0x20 PUSH1 0x0 KECCAK256 SWAP1 JUMPDEST DUP2 SLOAD DUP2 MSTORE SWAP1 PUSH1 0x1 ADD SWAP1 PUSH1 0x20 ADD DUP1 DUP4 GT PUSH2 0x4F7 JUMPI DUP3 SWAP1 SUB PUSH1 0x1F AND DUP3 ADD SWAP2 JUMPDEST POP POP POP POP POP SWAP1 POP SWAP1 JUMP JUMPDEST PUSH1 0x0 PUSH2 0x529 DUP3 PUSH2 0xE09 JUMP JUMPDEST POP PUSH1 0x0 DUP3 DUP2 MSTORE PUSH1 0x4 PUSH1 0x20 MSTORE PUSH1 0x40 SWAP1 KECCAK256 SLOAD PUSH1 0x1 PUSH1 0x1 PUSH1 0xA0 SHL SUB AND PUSH2 0x486 JUMP JUMPDEST PUSH2 0x552 DUP3 DUP3 CALLER PUSH2 0xE42 JUMP JUMPDEST POP POP JUMP JUMPDEST PUSH1 0x1 PUSH1 0x1 PUSH1 0xA0 SHL SUB DUP3 AND PUSH2 0x585 JUMPI PUSH1 0x40 MLOAD PUSH4 0x32505749 PUSH1 0xE1 SHL DUP2 MSTORE PUSH1 0x0 PUSH1 0x4 DUP3 ADD MSTORE PUSH1 0x24 ADD JUMPDEST PUSH1 0x40 MLOAD DUP1 SWAP2 SUB SWAP1 REVERT JUMPDEST PUSH1 0x0 PUSH2 0x592 DUP4 DUP4 CALLER PUSH2 0xE4F JUMP JUMPDEST SWAP1 POP DUP4 PUSH1 0x1 PUSH1 0x1 PUSH1 0xA0 SHL SUB AND DUP2 PUSH1 0x1 PUSH1 0x1 PUSH1 0xA0 SHL SUB AND EQ PUSH2 0x5E0 JUMPI PUSH1 0x40 MLOAD PUSH4 0x64283D7B PUSH1 0xE0 SHL DUP2 MSTORE PUSH1 0x1 PUSH1 0x1 PUSH1 0xA0 SHL SUB DUP1 DUP7 AND PUSH1 0x4 DUP4 ADD MSTORE PUSH1 0x24 DUP3 ADD DUP5 SWAP1 MSTORE DUP3 AND PUSH1 0x44 DUP3 ADD MSTORE PUSH1 0x64 ADD PUSH2 0x57C JUMP JUMPDEST POP POP POP POP JUMP JUMPDEST PUSH1 0x0 DUP3 DUP2 MSTORE PUSH1 0x7 PUSH1 0x20 MSTORE PUSH1 0x40 DUP2 KECCAK256 DUP1 SLOAD DUP3 SWAP2 SWAP1 PUSH1 0x1 PUSH1 0x1 PUSH1 0xA0 SHL SUB DUP2 AND SWAP1 PUSH1 0x1 PUSH1 0xA0 SHL SWAP1 DIV PUSH1 0x1 PUSH1 0x1 PUSH1 0x60 SHL SUB AND DUP2 PUSH2 0x63A JUMPI POP POP PUSH1 0x6 SLOAD PUSH1 0x1 PUSH1 0x1 PUSH1 0xA0 SHL SUB DUP2 AND SWAP1 PUSH1 0x1 PUSH1 0xA0 SHL SWAP1 DIV PUSH1 0x1 PUSH1 0x1 PUSH1 0x60 SHL SUB AND JUMPDEST PUSH1 0x0 PUSH2 0x2710 PUSH2 0x652 PUSH1 0x1 PUSH1 0x1 PUSH1 0x60 SHL SUB DUP5 AND DUP10 PUSH2 0x1B23 JUMP JUMPDEST PUSH2 0x65C SWAP2 SWAP1 PUSH2 0x1B3A JUMP JUMPDEST SWAP3 SWAP6 POP SWAP2 SWAP4 POP POP POP POP JUMPDEST SWAP3 POP SWAP3 SWAP1 POP JUMP JUMPDEST PUSH1 0x60 PUSH2 0x678 DUP3 PUSH2 0xE09 JUMP JUMPDEST POP PUSH1 0x0 DUP3 DUP2 MSTORE PUSH1 0xA PUSH1 0x20 SWAP1 DUP2 MSTORE PUSH1 0x40 DUP1 DUP4 KECCAK256 DUP1 SLOAD DUP3 MLOAD DUP2 DUP6 MUL DUP2 ADD DUP6 ADD SWAP1 SWAP4 MSTORE DUP1 DUP4 MSTORE SWAP2 SWAP4 SWAP1 SWAP3 DUP5 ADD JUMPDEST DUP3 DUP3 LT ISZERO PUSH2 0x6F1 JUMPI PUSH1 0x0 DUP5 DUP2 MSTORE PUSH1 0x20 SWAP1 DUP2 SWAP1 KECCAK256 PUSH1 0x40 DUP1 MLOAD DUP1 DUP3 ADD SWAP1 SWAP2 MSTORE SWAP1 DUP5 ADD SLOAD PUSH1 0x1 PUSH1 0x1 PUSH1 0xA0 SHL SUB DUP2 AND DUP3 MSTORE PUSH1 0x1 PUSH1 0xA0 SHL SWAP1 DIV PUSH1 0x1 PUSH1 0x1 PUSH1 0x60 SHL SUB AND DUP2 DUP4 ADD MSTORE DUP3 MSTORE PUSH1 0x1 SWAP1 SWAP3 ADD SWAP2 ADD PUSH2 0x6A2 JUMP JUMPDEST POP POP POP POP SWAP1 POP SWAP2 SWAP1 POP JUMP JUMPDEST PUSH2 0x717 DUP4 DUP4 DUP4 PUSH1 0x40 MLOAD DUP1 PUSH1 0x20 ADD PUSH1 0x40 MSTORE DUP1 PUSH1 0x0 DUP2 MSTORE POP PUSH2 0xC62 JUMP JUMPDEST POP POP POP JUMP JUMPDEST PUSH1 0x0 PUSH2 0x727 CALLER PUSH2 0xF48 JUMP JUMPDEST SWAP1 POP PUSH1 0x0 DUP2 GT PUSH2 0x769 JUMPI PUSH1 0x40 MLOAD PUSH3 0x461BCD PUSH1 0xE5 SHL DUP2 MSTORE PUSH1 0x20 PUSH1 0x4 DUP3 ADD MSTORE PUSH1 0xD PUSH1 0x24 DUP3 ADD MSTORE PUSH13 0x2737BA10309031B932B0BA37B9 PUSH1 0x99 SHL PUSH1 0x44 DUP3 ADD MSTORE PUSH1 0x64 ADD PUSH2 0x57C JUMP JUMPDEST PUSH1 0x0 PUSH2 0x2710 DUP3 PUSH1 0xB SLOAD PUSH2 0x77C SWAP2 SWAP1 PUSH2 0x1B23 JUMP JUMPDEST PUSH2 0x786 SWAP2 SWAP1 PUSH2 0x1B3A JUMP JUMPDEST CALLER PUSH1 0x0 SWAP1 DUP2 MSTORE PUSH1 0xC PUSH1 0x20 MSTORE PUSH1 0x40 SWAP1 KECCAK256 SLOAD SWAP1 SWAP2 POP DUP1 DUP3 GT PUSH2 0x7DB JUMPI PUSH1 0x40 MLOAD PUSH3 0x461BCD PUSH1 0xE5 SHL DUP2 MSTORE PUSH1 0x20 PUSH1 0x4 DUP3 ADD MSTORE PUSH1 0x10 PUSH1 0x24 DUP3 ADD MSTORE PUSH16 0x4E6F7468696E6720746F20636C61696D PUSH1 0x80 SHL PUSH1 0x44 DUP3 ADD MSTORE PUSH1 0x64 ADD PUSH2 0x57C JUMP JUMPDEST PUSH1 0x0 PUSH2 0x7E7 DUP3 DUP5 PUSH2 0x1B5C JUMP JUMPDEST CALLER PUSH1 0x0 DUP2 DUP2 MSTORE PUSH1 0xC PUSH1 0x20 MSTORE PUSH1 0x40 DUP1 DUP3 KECCAK256 DUP8 SWAP1 SSTORE MLOAD SWAP3 SWAP4 POP SWAP2 DUP4 SWAP1 DUP4 DUP2 DUP2 DUP2 DUP6 DUP8 GAS CALL SWAP3 POP POP POP RETURNDATASIZE DUP1 PUSH1 0x0 DUP2 EQ PUSH2 0x839 JUMPI PUSH1 0x40 MLOAD SWAP2 POP PUSH1 0x1F NOT PUSH1 0x3F RETURNDATASIZE ADD AND DUP3 ADD PUSH1 0x40 MSTORE RETURNDATASIZE DUP3 MSTORE RETURNDATASIZE PUSH1 0x0 PUSH1 0x20 DUP5 ADD RETURNDATACOPY PUSH2 0x83E JUMP JUMPDEST PUSH1 0x60 SWAP2 POP JUMPDEST POP POP SWAP1 POP DUP1 PUSH2 0x881 JUMPI PUSH1 0x40 MLOAD PUSH3 0x461BCD PUSH1 0xE5 SHL DUP2 MSTORE PUSH1 0x20 PUSH1 0x4 DUP3 ADD MSTORE PUSH1 0xF PUSH1 0x24 DUP3 ADD MSTORE PUSH15 0x151C985B9CD9995C8819985A5B1959 PUSH1 0x8A SHL PUSH1 0x44 DUP3 ADD MSTORE PUSH1 0x64 ADD PUSH2 0x57C JUMP JUMPDEST POP POP POP POP POP JUMP JUMPDEST PUSH1 0x0 PUSH2 0x486 DUP3 PUSH2 0xE09 JUMP JUMPDEST PUSH1 0x0 PUSH1 0x1 PUSH1 0x1 PUSH1 0xA0 SHL SUB DUP3 AND PUSH2 0x8BF JUMPI PUSH1 0x40 MLOAD PUSH4 0x22718AD9 PUSH1 0xE2 SHL DUP2 MSTORE PUSH1 0x0 PUSH1 0x4 DUP3 ADD MSTORE PUSH1 0x24 ADD PUSH2 0x57C JUMP JUMPDEST POP PUSH1 0x1 PUSH1 0x1 PUSH1 0xA0 SHL SUB AND PUSH1 0x0 SWAP1 DUP2 MSTORE PUSH1 0x3 PUSH1 0x20 MSTORE PUSH1 0x40 SWAP1 KECCAK256 SLOAD SWAP1 JUMP JUMPDEST PUSH2 0x8E3 PUSH2 0x1090 JUMP JUMPDEST PUSH2 0x8ED PUSH1 0x0 PUSH2 0x10BD JUMP JUMPDEST JUMP JUMPDEST PUSH1 0x0 PUSH2 0x8F9 PUSH2 0x1090 JUMP JUMPDEST DUP6 PUSH2 0x934 JUMPI PUSH1 0x40 MLOAD PUSH3 0x461BCD PUSH1 0xE5 SHL DUP2 MSTORE PUSH1 0x20 PUSH1 0x4 DUP3 ADD MSTORE PUSH1 0xB PUSH1 0x24 DUP3 ADD MSTORE PUSH11 0x4E6F2063726561746F7273 PUSH1 0xA8 SHL PUSH1 0x44 DUP3 ADD MSTORE PUSH1 0x64 ADD PUSH2 0x57C JUMP JUMPDEST DUP6 DUP5 EQ PUSH2 0x975 JUMPI PUSH1 0x40 MLOAD PUSH3 0x461BCD PUSH1 0xE5 SHL DUP2 MSTORE PUSH1 0x20 PUSH1 0x4 DUP3 ADD MSTORE PUSH1 0xF PUSH1 0x24 DUP3 ADD MSTORE PUSH15 0x98CADCCEE8D040DAD2E6DAC2E8C6D PUSH1 0x8B SHL PUSH1 0x44 DUP3 ADD MSTORE PUSH1 0x64 ADD PUSH2 0x57C JUMP JUMPDEST PUSH2 0x3E8 DUP4 PUSH1 0x1 PUSH1 0x1 PUSH1 0x60 SHL SUB AND GT ISZERO PUSH2 0x9D0 JUMPI PUSH1 0x40 MLOAD PUSH3 0x461BCD PUSH1 0xE5 SHL DUP2 MSTORE PUSH1 0x20 PUSH1 0x4 DUP3 ADD MSTORE PUSH1 0x17 PUSH1 0x24 DUP3 ADD MSTORE PUSH32 0x526F79616C747920746F6F206869676820283E31302529000000000000000000 PUSH1 0x44 DUP3 ADD MSTORE PUSH1 0x64 ADD PUSH2 0x57C JUMP JUMPDEST PUSH1 0x0 DUP1 JUMPDEST DUP6 DUP2 LT ISZERO PUSH2 0xA8E JUMPI DUP7 DUP7 DUP3 DUP2 DUP2 LT PUSH2 0x9EE JUMPI PUSH2 0x9EE PUSH2 0x1B6F JUMP JUMPDEST SWAP1 POP PUSH1 0x20 MUL ADD PUSH1 0x20 DUP2 ADD SWAP1 PUSH2 0xA03 SWAP2 SWAP1 PUSH2 0x1B85 JUMP JUMPDEST PUSH2 0xA16 SWAP1 PUSH1 0x1 PUSH1 0x1 PUSH1 0x60 SHL SUB AND DUP4 PUSH2 0x1667 JUMP JUMPDEST SWAP2 POP PUSH1 0x0 DUP10 DUP10 DUP4 DUP2 DUP2 LT PUSH2 0xA2C JUMPI PUSH2 0xA2C PUSH2 0x1B6F JUMP JUMPDEST SWAP1 POP PUSH1 0x20 MUL ADD PUSH1 0x20 DUP2 ADD SWAP1 PUSH2 0xA41 SWAP2 SWAP1 PUSH2 0x182B JUMP JUMPDEST PUSH1 0x1 PUSH1 0x1 PUSH1 0xA0 SHL SUB AND SUB PUSH2 0xA86 JUMPI PUSH1 0x40 MLOAD PUSH3 0x461BCD PUSH1 0xE5 SHL DUP2 MSTORE PUSH1 0x20 PUSH1 0x4 DUP3 ADD MSTORE PUSH1 0xC PUSH1 0x24 DUP3 ADD MSTORE PUSH12 0x2D32B9379031B932B0BA37B9 PUSH1 0xA1 SHL PUSH1 0x44 DUP3 ADD MSTORE PUSH1 0x64 ADD PUSH2 0x57C JUMP JUMPDEST PUSH1 0x1 ADD PUSH2 0x9D4 JUMP JUMPDEST POP DUP1 PUSH2 0x2710 EQ PUSH2 0xAE0 JUMPI PUSH1 0x40 MLOAD PUSH3 0x461BCD PUSH1 0xE5 SHL DUP2 MSTORE PUSH1 0x20 PUSH1 0x4 DUP3 ADD MSTORE PUSH1 0x1C PUSH1 0x24 DUP3 ADD MSTORE PUSH32 0x536861726573206D7573742073756D20746F2031303030302062707300000000 PUSH1 0x44 DUP3 ADD MSTORE PUSH1 0x64 ADD PUSH2 0x57C JUMP JUMPDEST PUSH1 0xD PUSH1 0x0 DUP2 SLOAD PUSH2 0xAEF SWAP1 PUSH2 0x1BA0 JUMP JUMPDEST SWAP2 DUP3 SWAP1 SSTORE POP SWAP2 POP PUSH2 0xB00 DUP4 DUP4 PUSH2 0x110F JUMP JUMPDEST PUSH1 0x0 DUP3 DUP2 MSTORE PUSH1 0x9 PUSH1 0x20 MSTORE PUSH1 0x40 SWAP1 KECCAK256 PUSH2 0xB19 DUP11 DUP13 DUP4 PUSH2 0x1C01 JUMP JUMPDEST POP PUSH1 0x0 JUMPDEST DUP8 DUP2 LT ISZERO PUSH2 0xBEB JUMPI PUSH1 0xA PUSH1 0x0 DUP5 DUP2 MSTORE PUSH1 0x20 ADD SWAP1 DUP2 MSTORE PUSH1 0x20 ADD PUSH1 0x0 KECCAK256 PUSH1 0x40 MLOAD DUP1 PUSH1 0x40 ADD PUSH1 0x40 MSTORE DUP1 DUP12 DUP12 DUP6 DUP2 DUP2 LT PUSH2 0xB55 JUMPI PUSH2 0xB55 PUSH2 0x1B6F JUMP JUMPDEST SWAP1 POP PUSH1 0x20 MUL ADD PUSH1 0x20 DUP2 ADD SWAP1 PUSH2 0xB6A SWAP2 SWAP1 PUSH2 0x182B JUMP JUMPDEST PUSH1 0x1 PUSH1 0x1 PUSH1 0xA0 SHL SUB AND DUP2 MSTORE PUSH1 0x20 ADD DUP10 DUP10 DUP6 DUP2 DUP2 LT PUSH2 0xB8A JUMPI PUSH2 0xB8A PUSH2 0x1B6F JUMP JUMPDEST SWAP1 POP PUSH1 0x20 MUL ADD PUSH1 0x20 DUP2 ADD SWAP1 PUSH2 0xB9F SWAP2 SWAP1 PUSH2 0x1B85 JUMP JUMPDEST PUSH1 0x1 PUSH1 0x1 PUSH1 0x60 SHL SUB SWAP1 DUP2 AND SWAP1 SWAP2 MSTORE DUP3 SLOAD PUSH1 0x1 DUP2 DUP2 ADD DUP6 SSTORE PUSH1 0x0 SWAP5 DUP6 MSTORE PUSH1 0x20 SWAP5 DUP6 SWAP1 KECCAK256 DUP5 MLOAD SWAP6 SWAP1 SWAP5 ADD MLOAD SWAP1 SWAP3 AND PUSH1 0x1 PUSH1 0xA0 SHL MUL PUSH1 0x1 PUSH1 0x1 PUSH1 0xA0 SHL SUB SWAP1 SWAP5 AND SWAP4 SWAP1 SWAP4 OR SWAP2 SWAP1 SWAP3 ADD SSTORE ADD PUSH2 0xB1D JUMP JUMPDEST POP PUSH2 0xBF7 DUP3 ADDRESS DUP7 PUSH2 0x1129 JUMP JUMPDEST DUP2 PUSH32 0xF7AE5E4AD17C6D4B578FA3CFEEBA5977BE5359936C2DEC063C343D640D63EACD DUP12 DUP12 DUP12 DUP12 DUP12 DUP12 DUP12 PUSH1 0x40 MLOAD PUSH2 0xC33 SWAP8 SWAP7 SWAP6 SWAP5 SWAP4 SWAP3 SWAP2 SWAP1 PUSH2 0x1D08 JUMP JUMPDEST PUSH1 0x40 MLOAD DUP1 SWAP2 SUB SWAP1 LOG2 POP SWAP9 SWAP8 POP POP POP POP POP POP POP POP JUMP JUMPDEST PUSH1 0x60 PUSH1 0x1 DUP1 SLOAD PUSH2 0x49B SWAP1 PUSH2 0x1AE9 JUMP JUMPDEST PUSH2 0x552 CALLER DUP4 DUP4 PUSH2 0x11EB JUMP JUMPDEST PUSH2 0xC6D DUP5 DUP5 DUP5 PUSH2 0x556 JUMP JUMPDEST PUSH2 0x5E0 CALLER DUP6 DUP6 DUP6 DUP6 PUSH2 0x128A JUMP JUMPDEST PUSH1 0x60 PUSH2 0xC85 DUP3 PUSH2 0xE09 JUMP JUMPDEST POP PUSH1 0x0 DUP3 DUP2 MSTORE PUSH1 0x9 PUSH1 0x20 MSTORE PUSH1 0x40 SWAP1 KECCAK256 DUP1 SLOAD PUSH2 0xC9F SWAP1 PUSH2 0x1AE9 JUMP JUMPDEST DUP1 PUSH1 0x1F ADD PUSH1 0x20 DUP1 SWAP2 DIV MUL PUSH1 0x20 ADD PUSH1 0x40 MLOAD SWAP1 DUP2 ADD PUSH1 0x40 MSTORE DUP1 SWAP3 SWAP2 SWAP1 DUP2 DUP2 MSTORE PUSH1 0x20 ADD DUP3 DUP1 SLOAD PUSH2 0xCCB SWAP1 PUSH2 0x1AE9 JUMP JUMPDEST DUP1 ISZERO PUSH2 0xD18 JUMPI DUP1 PUSH1 0x1F LT PUSH2 0xCED JUMPI PUSH2 0x100 DUP1 DUP4 SLOAD DIV MUL DUP4 MSTORE SWAP2 PUSH1 0x20 ADD SWAP2 PUSH2 0xD18 JUMP JUMPDEST DUP3 ADD SWAP2 SWAP1 PUSH1 0x0 MSTORE PUSH1 0x20 PUSH1 0x0 KECCAK256 SWAP1 JUMPDEST DUP2 SLOAD DUP2 MSTORE SWAP1 PUSH1 0x1 ADD SWAP1 PUSH1 0x20 ADD DUP1 DUP4 GT PUSH2 0xCFB JUMPI DUP3 SWAP1 SUB PUSH1 0x1F AND DUP3 ADD SWAP2 JUMPDEST POP POP POP POP POP SWAP1 POP SWAP2 SWAP1 POP JUMP JUMPDEST PUSH1 0x0 CALLVALUE GT PUSH2 0xD5F JUMPI PUSH1 0x40 MLOAD PUSH3 0x461BCD PUSH1 0xE5 SHL DUP2 MSTORE PUSH1 0x20 PUSH1 0x4 DUP3 ADD MSTORE PUSH1 0x8 PUSH1 0x24 DUP3 ADD MSTORE PUSH8 0x4E6F2076616C7565 PUSH1 0xC0 SHL PUSH1 0x44 DUP3 ADD MSTORE PUSH1 0x64 ADD PUSH2 0x57C JUMP JUMPDEST CALLVALUE PUSH1 0xB PUSH1 0x0 DUP3 DUP3 SLOAD PUSH2 0xD71 SWAP2 SWAP1 PUSH2 0x1667 JUMP JUMPDEST SWAP1 SWAP2 SSTORE POP POP JUMP JUMPDEST PUSH1 0x1 PUSH1 0x1 PUSH1 0xA0 SHL SUB SWAP2 DUP3 AND PUSH1 0x0 SWAP1 DUP2 MSTORE PUSH1 0x5 PUSH1 0x20 SWAP1 DUP2 MSTORE PUSH1 0x40 DUP1 DUP4 KECCAK256 SWAP4 SWAP1 SWAP5 AND DUP3 MSTORE SWAP2 SWAP1 SWAP2 MSTORE KECCAK256 SLOAD PUSH1 0xFF AND SWAP1 JUMP JUMPDEST PUSH2 0xDAE PUSH2 0x1090 JUMP JUMPDEST PUSH1 0x1 PUSH1 0x1 PUSH1 0xA0 SHL SUB DUP2 AND PUSH2 0xDD8 JUMPI PUSH1 0x40 MLOAD PUSH4 0x1E4FBDF7 PUSH1 0xE0 SHL DUP2 MSTORE PUSH1 0x0 PUSH1 0x4 DUP3 ADD MSTORE PUSH1 0x24 ADD PUSH2 0x57C JUMP JUMPDEST PUSH2 0xDE1 DUP2 PUSH2 0x10BD JUMP JUMPDEST POP JUMP JUMPDEST PUSH1 0x0 PUSH1 0x1 PUSH1 0x1 PUSH1 0xE0 SHL SUB NOT DUP3 AND PUSH4 0x152A902D PUSH1 0xE1 SHL EQ DUP1 PUSH2 0x486 JUMPI POP PUSH2 0x486 DUP3 PUSH2 0x13B4 JUMP JUMPDEST PUSH1 0x0 DUP2 DUP2 MSTORE PUSH1 0x2 PUSH1 0x20 MSTORE PUSH1 0x40 DUP2 KECCAK256 SLOAD PUSH1 0x1 PUSH1 0x1 PUSH1 0xA0 SHL SUB AND DUP1 PUSH2 0x486 JUMPI PUSH1 0x40 MLOAD PUSH4 0x7E273289 PUSH1 0xE0 SHL DUP2 MSTORE PUSH1 0x4 DUP2 ADD DUP5 SWAP1 MSTORE PUSH1 0x24 ADD PUSH2 0x57C JUMP JUMPDEST PUSH2 0x717 DUP4 DUP4 DUP4 PUSH1 0x1 PUSH2 0x1404 JUMP JUMPDEST PUSH1 0x0 DUP3 DUP2 MSTORE PUSH1 0x2 PUSH1 0x20 MSTORE PUSH1 0x40 DUP2 KECCAK256 SLOAD PUSH1 0x1 PUSH1 0x1 PUSH1 0xA0 SHL SUB SWAP1 DUP2 AND SWAP1 DUP4 AND ISZERO PUSH2 0xE7C JUMPI PUSH2 0xE7C DUP2 DUP5 DUP7 PUSH2 0x150A JUMP JUMPDEST PUSH1 0x1 PUSH1 0x1 PUSH1 0xA0 SHL SUB DUP2 AND ISZERO PUSH2 0xEBA JUMPI PUSH2 0xE99 PUSH1 0x0 DUP6 PUSH1 0x0 DUP1 PUSH2 0x1404 JUMP JUMPDEST PUSH1 0x1 PUSH1 0x1 PUSH1 0xA0 SHL SUB DUP2 AND PUSH1 0x0 SWAP1 DUP2 MSTORE PUSH1 0x3 PUSH1 0x20 MSTORE PUSH1 0x40 SWAP1 KECCAK256 DUP1 SLOAD PUSH1 0x0 NOT ADD SWAP1 SSTORE JUMPDEST PUSH1 0x1 PUSH1 0x1 PUSH1 0xA0 SHL SUB DUP6 AND ISZERO PUSH2 0xEE9 JUMPI PUSH1 0x1 PUSH1 0x1 PUSH1 0xA0 SHL SUB DUP6 AND PUSH1 0x0 SWAP1 DUP2 MSTORE PUSH1 0x3 PUSH1 0x20 MSTORE PUSH1 0x40 SWAP1 KECCAK256 DUP1 SLOAD PUSH1 0x1 ADD SWAP1 SSTORE JUMPDEST PUSH1 0x0 DUP5 DUP2 MSTORE PUSH1 0x2 PUSH1 0x20 MSTORE PUSH1 0x40 DUP1 DUP3 KECCAK256 DUP1 SLOAD PUSH1 0x1 PUSH1 0x1 PUSH1 0xA0 SHL SUB NOT AND PUSH1 0x1 PUSH1 0x1 PUSH1 0xA0 SHL SUB DUP10 DUP2 AND SWAP2 DUP3 OR SWAP1 SWAP3 SSTORE SWAP2 MLOAD DUP8 SWAP4 SWAP2 DUP6 AND SWAP2 PUSH32 0xDDF252AD1BE2C89B69C2B068FC378DAA952BA7F163C4A11628F55A4DF523B3EF SWAP2 LOG4 SWAP5 SWAP4 POP POP POP POP JUMP JUMPDEST PUSH1 0x0 DUP1 PUSH1 0x1 JUMPDEST PUSH1 0xD SLOAD DUP2 GT PUSH2 0x1089 JUMPI PUSH1 0x0 DUP2 DUP2 MSTORE PUSH1 0x2 PUSH1 0x20 MSTORE PUSH1 0x40 SWAP1 KECCAK256 SLOAD PUSH1 0x1 PUSH1 0x1 PUSH1 0xA0 SHL SUB AND ISZERO PUSH2 0x1077 JUMPI PUSH1 0x0 DUP2 DUP2 MSTORE PUSH1 0xA PUSH1 0x20 SWAP1 DUP2 MSTORE PUSH1 0x40 DUP1 DUP4 KECCAK256 DUP1 SLOAD DUP3 MLOAD DUP2 DUP6 MUL DUP2 ADD DUP6 ADD SWAP1 SWAP4 MSTORE DUP1 DUP4 MSTORE SWAP2 SWAP3 SWAP1 SWAP2 SWAP1 DUP5 SWAP1 DUP5 ADD JUMPDEST DUP3 DUP3 LT ISZERO PUSH2 0xFEF JUMPI PUSH1 0x0 DUP5 DUP2 MSTORE PUSH1 0x20 SWAP1 DUP2 SWAP1 KECCAK256 PUSH1 0x40 DUP1 MLOAD DUP1 DUP3 ADD SWAP1 SWAP2 MSTORE SWAP1 DUP5 ADD SLOAD PUSH1 0x1 PUSH1 0x1 PUSH1 0xA0 SHL SUB DUP2 AND DUP3 MSTORE PUSH1 0x1 PUSH1 0xA0 SHL SWAP1 DIV PUSH1 0x1 PUSH1 0x1 PUSH1 0x60 SHL SUB AND DUP2 DUP4 ADD MSTORE DUP3 MSTORE PUSH1 0x1 SWAP1 SWAP3 ADD SWAP2 ADD PUSH2 0xFA0 JUMP JUMPDEST POP POP POP POP SWAP1 POP PUSH1 0x0 JUMPDEST DUP2 MLOAD DUP2 LT ISZERO PUSH2 0x1074 JUMPI DUP6 PUSH1 0x1 PUSH1 0x1 PUSH1 0xA0 SHL SUB AND DUP3 DUP3 DUP2 MLOAD DUP2 LT PUSH2 0x101D JUMPI PUSH2 0x101D PUSH2 0x1B6F JUMP JUMPDEST PUSH1 0x20 MUL PUSH1 0x20 ADD ADD MLOAD PUSH1 0x0 ADD MLOAD PUSH1 0x1 PUSH1 0x1 PUSH1 0xA0 SHL SUB AND SUB PUSH2 0x106C JUMPI DUP2 DUP2 DUP2 MLOAD DUP2 LT PUSH2 0x1049 JUMPI PUSH2 0x1049 PUSH2 0x1B6F JUMP JUMPDEST PUSH1 0x20 MUL PUSH1 0x20 ADD ADD MLOAD PUSH1 0x20 ADD MLOAD PUSH1 0x1 PUSH1 0x1 PUSH1 0x60 SHL SUB AND DUP5 PUSH2 0x1069 SWAP2 SWAP1 PUSH2 0x1667 JUMP JUMPDEST SWAP4 POP JUMPDEST PUSH1 0x1 ADD PUSH2 0xFF8 JUMP JUMPDEST POP POP JUMPDEST DUP1 PUSH2 0x1081 DUP2 PUSH2 0x1BA0 JUMP JUMPDEST SWAP2 POP POP PUSH2 0xF4E JUMP JUMPDEST POP SWAP3 SWAP2 POP POP JUMP JUMPDEST PUSH1 0x8 SLOAD PUSH1 0x1 PUSH1 0x1 PUSH1 0xA0 SHL SUB AND CALLER EQ PUSH2 0x8ED JUMPI PUSH1 0x40 MLOAD PUSH4 0x118CDAA7 PUSH1 0xE0 SHL DUP2 MSTORE CALLER PUSH1 0x4 DUP3 ADD MSTORE PUSH1 0x24 ADD PUSH2 0x57C JUMP JUMPDEST PUSH1 0x8 DUP1 SLOAD PUSH1 0x1 PUSH1 0x1 PUSH1 0xA0 SHL SUB DUP4 DUP2 AND PUSH1 0x1 PUSH1 0x1 PUSH1 0xA0 SHL SUB NOT DUP4 AND DUP2 OR SWAP1 SWAP4 SSTORE PUSH1 0x40 MLOAD SWAP2 AND SWAP2 SWAP1 DUP3 SWAP1 PUSH32 0x8BE0079C531659141344CD1FD0A4F28419497F9722A3DAAFE3B4186F6B6457E0 SWAP1 PUSH1 0x0 SWAP1 LOG3 POP POP JUMP JUMPDEST PUSH2 0x552 DUP3 DUP3 PUSH1 0x40 MLOAD DUP1 PUSH1 0x20 ADD PUSH1 0x40 MSTORE DUP1 PUSH1 0x0 DUP2 MSTORE POP PUSH2 0x156E JUMP JUMPDEST PUSH2 0x2710 PUSH1 0x1 PUSH1 0x1 PUSH1 0x60 SHL SUB DUP3 AND DUP2 LT ISZERO PUSH2 0x116F JUMPI PUSH1 0x40 MLOAD PUSH4 0xDFD1FC1B PUSH1 0xE0 SHL DUP2 MSTORE PUSH1 0x4 DUP2 ADD DUP6 SWAP1 MSTORE PUSH1 0x1 PUSH1 0x1 PUSH1 0x60 SHL SUB DUP4 AND PUSH1 0x24 DUP3 ADD MSTORE PUSH1 0x44 DUP2 ADD DUP3 SWAP1 MSTORE PUSH1 0x64 ADD PUSH2 0x57C JUMP JUMPDEST PUSH1 0x1 PUSH1 0x1 PUSH1 0xA0 SHL SUB DUP4 AND PUSH2 0x11A0 JUMPI PUSH1 0x40 MLOAD PUSH4 0x4B4F8429 PUSH1 0xE1 SHL DUP2 MSTORE PUSH1 0x4 DUP2 ADD DUP6 SWAP1 MSTORE PUSH1 0x0 PUSH1 0x24 DUP3 ADD MSTORE PUSH1 0x44 ADD PUSH2 0x57C JUMP JUMPDEST POP PUSH1 0x40 DUP1 MLOAD DUP1 DUP3 ADD DUP3 MSTORE PUSH1 0x1 PUSH1 0x1 PUSH1 0xA0 SHL SUB SWAP4 DUP5 AND DUP2 MSTORE PUSH1 0x1 PUSH1 0x1 PUSH1 0x60 SHL SUB SWAP3 DUP4 AND PUSH1 0x20 DUP1 DUP4 ADD SWAP2 DUP3 MSTORE PUSH1 0x0 SWAP7 DUP8 MSTORE PUSH1 0x7 SWAP1 MSTORE SWAP2 SWAP1 SWAP5 KECCAK256 SWAP4 MLOAD SWAP1 MLOAD SWAP1 SWAP2 AND PUSH1 0x1 PUSH1 0xA0 SHL MUL SWAP2 AND OR SWAP1 SSTORE JUMP JUMPDEST PUSH1 0x1 PUSH1 0x1 PUSH1 0xA0 SHL SUB DUP3 AND PUSH2 0x121D JUMPI PUSH1 0x40 MLOAD PUSH4 0xB611743 PUSH1 0xE3 SHL DUP2 MSTORE PUSH1 0x1 PUSH1 0x1 PUSH1 0xA0 SHL SUB DUP4 AND PUSH1 0x4 DUP3 ADD MSTORE PUSH1 0x24 ADD PUSH2 0x57C JUMP JUMPDEST PUSH1 0x1 PUSH1 0x1 PUSH1 0xA0 SHL SUB DUP4 DUP2 AND PUSH1 0x0 DUP2 DUP2 MSTORE PUSH1 0x5 PUSH1 0x20 SWAP1 DUP2 MSTORE PUSH1 0x40 DUP1 DUP4 KECCAK256 SWAP5 DUP8 AND DUP1 DUP5 MSTORE SWAP5 DUP3 MSTORE SWAP2 DUP3 SWAP1 KECCAK256 DUP1 SLOAD PUSH1 0xFF NOT AND DUP7 ISZERO ISZERO SWAP1 DUP2 OR SWAP1 SWAP2 SSTORE SWAP2 MLOAD SWAP2 DUP3 MSTORE PUSH32 0x17307EAB39AB6107E8899845AD3D59BD9653F200F220920489CA2B5937696C31 SWAP2 ADD PUSH1 0x40 MLOAD DUP1 SWAP2 SUB SWAP1 LOG3 POP POP POP JUMP JUMPDEST PUSH1 0x1 PUSH1 0x1 PUSH1 0xA0 SHL SUB DUP4 AND EXTCODESIZE ISZERO PUSH2 0x881 JUMPI PUSH1 0x40 MLOAD PUSH4 0xA85BD01 PUSH1 0xE1 SHL DUP2 MSTORE PUSH1 0x1 PUSH1 0x1 PUSH1 0xA0 SHL SUB DUP5 AND SWAP1 PUSH4 0x150B7A02 SWAP1 PUSH2 0x12CC SWAP1 DUP9 SWAP1 DUP9 SWAP1 DUP8 SWAP1 DUP8 SWAP1 PUSH1 0x4 ADD PUSH2 0x1DB3 JUMP JUMPDEST PUSH1 0x20 PUSH1 0x40 MLOAD DUP1 DUP4 SUB DUP2 PUSH1 0x0 DUP8 GAS CALL SWAP3 POP POP POP DUP1 ISZERO PUSH2 0x1307 JUMPI POP PUSH1 0x40 DUP1 MLOAD PUSH1 0x1F RETURNDATASIZE SWAP1 DUP2 ADD PUSH1 0x1F NOT AND DUP3 ADD SWAP1 SWAP3 MSTORE PUSH2 0x1304 SWAP2 DUP2 ADD SWAP1 PUSH2 0x1DF0 JUMP JUMPDEST PUSH1 0x1 JUMPDEST PUSH2 0x1370 JUMPI RETURNDATASIZE DUP1 DUP1 ISZERO PUSH2 0x1335 JUMPI PUSH1 0x40 MLOAD SWAP2 POP PUSH1 0x1F NOT PUSH1 0x3F RETURNDATASIZE ADD AND DUP3 ADD PUSH1 0x40 MSTORE RETURNDATASIZE DUP3 MSTORE RETURNDATASIZE PUSH1 0x0 PUSH1 0x20 DUP5 ADD RETURNDATACOPY PUSH2 0x133A JUMP JUMPDEST PUSH1 0x60 SWAP2 POP JUMPDEST POP DUP1 MLOAD PUSH1 0x0 SUB PUSH2 0x1368 JUMPI PUSH1 0x40 MLOAD PUSH4 0x32505749 PUSH1 0xE1 SHL DUP2 MSTORE PUSH1 0x1 PUSH1 0x1 PUSH1 0xA0 SHL SUB DUP6 AND PUSH1 0x4 DUP3 ADD MSTORE PUSH1 0x24 ADD PUSH2 0x57C JUMP JUMPDEST DUP1 MLOAD PUSH1 0x20 DUP3 ADD REVERT JUMPDEST PUSH1 0x1 PUSH1 0x1 PUSH1 0xE0 SHL SUB NOT DUP2 AND PUSH4 0xA85BD01 PUSH1 0xE1 SHL EQ PUSH2 0x13AC JUMPI PUSH1 0x40 MLOAD PUSH4 0x32505749 PUSH1 0xE1 SHL DUP2 MSTORE PUSH1 0x1 PUSH1 0x1 PUSH1 0xA0 SHL SUB DUP6 AND PUSH1 0x4 DUP3 ADD MSTORE PUSH1 0x24 ADD PUSH2 0x57C JUMP JUMPDEST POP POP POP POP POP POP JUMP JUMPDEST PUSH1 0x0 PUSH1 0x1 PUSH1 0x1 PUSH1 0xE0 SHL SUB NOT DUP3 AND PUSH4 0x80AC58CD PUSH1 0xE0 SHL EQ DUP1 PUSH2 0x13E5 JUMPI POP PUSH1 0x1 PUSH1 0x1 PUSH1 0xE0 SHL SUB NOT DUP3 AND PUSH4 0x5B5E139F PUSH1 0xE0 SHL EQ JUMPDEST DUP1 PUSH2 0x486 JUMPI POP PUSH4 0x1FFC9A7 PUSH1 0xE0 SHL PUSH1 0x1 PUSH1 0x1 PUSH1 0xE0 SHL SUB NOT DUP4 AND EQ PUSH2 0x486 JUMP JUMPDEST DUP1 DUP1 PUSH2 0x1418 JUMPI POP PUSH1 0x1 PUSH1 0x1 PUSH1 0xA0 SHL SUB DUP3 AND ISZERO ISZERO JUMPDEST ISZERO PUSH2 0x14DA JUMPI PUSH1 0x0 PUSH2 0x1428 DUP5 PUSH2 0xE09 JUMP JUMPDEST SWAP1 POP PUSH1 0x1 PUSH1 0x1 PUSH1 0xA0 SHL SUB DUP4 AND ISZERO DUP1 ISZERO SWAP1 PUSH2 0x1454 JUMPI POP DUP3 PUSH1 0x1 PUSH1 0x1 PUSH1 0xA0 SHL SUB AND DUP2 PUSH1 0x1 PUSH1 0x1 PUSH1 0xA0 SHL SUB AND EQ ISZERO JUMPDEST DUP1 ISZERO PUSH2 0x1467 JUMPI POP PUSH2 0x1465 DUP2 DUP5 PUSH2 0xD78 JUMP JUMPDEST ISZERO JUMPDEST ISZERO PUSH2 0x1490 JUMPI PUSH1 0x40 MLOAD PUSH4 0xA9FBF51F PUSH1 0xE0 SHL DUP2 MSTORE PUSH1 0x1 PUSH1 0x1 PUSH1 0xA0 SHL SUB DUP5 AND PUSH1 0x4 DUP3 ADD MSTORE PUSH1 0x24 ADD PUSH2 0x57C JUMP JUMPDEST DUP2 ISZERO PUSH2 0x14D8 JUMPI DUP4 DUP6 PUSH1 0x1 PUSH1 0x1 PUSH1 0xA0 SHL SUB AND DUP3 PUSH1 0x1 PUSH1 0x1 PUSH1 0xA0 SHL SUB AND PUSH32 0x8C5BE1E5EBEC7D5BD14F71427D1E84F3DD0314C0F7B2291E5B200AC8C7C3B925 PUSH1 0x40 MLOAD PUSH1 0x40 MLOAD DUP1 SWAP2 SUB SWAP1 LOG4 JUMPDEST POP JUMPDEST POP POP PUSH1 0x0 SWAP1 DUP2 MSTORE PUSH1 0x4 PUSH1 0x20 MSTORE PUSH1 0x40 SWAP1 KECCAK256 DUP1 SLOAD PUSH1 0x1 PUSH1 0x1 PUSH1 0xA0 SHL SUB NOT AND PUSH1 0x1 PUSH1 0x1 PUSH1 0xA0 SHL SUB SWAP3 SWAP1 SWAP3 AND SWAP2 SWAP1 SWAP2 OR SWAP1 SSTORE JUMP JUMPDEST PUSH2 0x1515 DUP4 DUP4 DUP4 PUSH2 0x1586 JUMP JUMPDEST PUSH2 0x717 JUMPI PUSH1 0x1 PUSH1 0x1 PUSH1 0xA0 SHL SUB DUP4 AND PUSH2 0x1543 JUMPI PUSH1 0x40 MLOAD PUSH4 0x7E273289 PUSH1 0xE0 SHL DUP2 MSTORE PUSH1 0x4 DUP2 ADD DUP3 SWAP1 MSTORE PUSH1 0x24 ADD PUSH2 0x57C JUMP JUMPDEST PUSH1 0x40 MLOAD PUSH4 0x177E802F PUSH1 0xE0 SHL DUP2 MSTORE PUSH1 0x1 PUSH1 0x1 PUSH1 0xA0 SHL SUB DUP4 AND PUSH1 0x4 DUP3 ADD MSTORE PUSH1 0x24 DUP2 ADD DUP3 SWAP1 MSTORE PUSH1 0x44 ADD PUSH2 0x57C JUMP JUMPDEST PUSH2 0x1578 DUP4 DUP4 PUSH2 0x15EC JUMP JUMPDEST PUSH2 0x717 CALLER PUSH1 0x0 DUP6 DUP6 DUP6 PUSH2 0x128A JUMP JUMPDEST PUSH1 0x0 PUSH1 0x1 PUSH1 0x1 PUSH1 0xA0 SHL SUB DUP4 AND ISZERO DUP1 ISZERO SWAP1 PUSH2 0x15E4 JUMPI POP DUP3 PUSH1 0x1 PUSH1 0x1 PUSH1 0xA0 SHL SUB AND DUP5 PUSH1 0x1 PUSH1 0x1 PUSH1 0xA0 SHL SUB AND EQ DUP1 PUSH2 0x15C0 JUMPI POP PUSH2 0x15C0 DUP5 DUP5 PUSH2 0xD78 JUMP JUMPDEST DUP1 PUSH2 0x15E4 JUMPI POP PUSH1 0x0 DUP3 DUP2 MSTORE PUSH1 0x4 PUSH1 0x20 MSTORE PUSH1 0x40 SWAP1 KECCAK256 SLOAD PUSH1 0x1 PUSH1 0x1 PUSH1 0xA0 SHL SUB DUP5 DUP2 AND SWAP2 AND EQ JUMPDEST SWAP5 SWAP4 POP POP POP POP JUMP JUMPDEST PUSH1 0x1 PUSH1 0x1 PUSH1 0xA0 SHL SUB DUP3 AND PUSH2 0x1616 JUMPI PUSH1 0x40 MLOAD PUSH4 0x32505749 PUSH1 0xE1 SHL DUP2 MSTORE PUSH1 0x0 PUSH1 0x4 DUP3 ADD MSTORE PUSH1 0x24 ADD PUSH2 0x57C JUMP JUMPDEST PUSH1 0x0 PUSH2 0x1624 DUP4 DUP4 PUSH1 0x0 PUSH2 0xE4F JUMP JUMPDEST SWAP1 POP PUSH1 0x1 PUSH1 0x1 PUSH1 0xA0 SHL SUB DUP2 AND ISZERO PUSH2 0x717 JUMPI PUSH1 0x40 MLOAD PUSH4 0x39E35637 PUSH1 0xE1 SHL DUP2 MSTORE PUSH1 0x0 PUSH1 0x4 DUP3 ADD MSTORE PUSH1 0x24 ADD PUSH2 0x57C JUMP JUMPDEST PUSH4 0x4E487B71 PUSH1 0xE0 SHL PUSH1 0x0 MSTORE PUSH1 0x11 PUSH1 0x4 MSTORE PUSH1 0x24 PUSH1 0x0 REVERT JUMPDEST DUP1 DUP3 ADD DUP1 DUP3 GT ISZERO PUSH2 0x486 JUMPI PUSH2 0x486 PUSH2 0x1651 JUMP JUMPDEST PUSH1 0x1 PUSH1 0x1 PUSH1 0xE0 SHL SUB NOT DUP2 AND DUP2 EQ PUSH2 0xDE1 JUMPI PUSH1 0x0 DUP1 REVERT JUMPDEST PUSH1 0x0 PUSH1 0x20 DUP3 DUP5 SUB SLT ISZERO PUSH2 0x16A2 JUMPI PUSH1 0x0 DUP1 REVERT JUMPDEST DUP2 CALLDATALOAD PUSH2 0x16AD DUP2 PUSH2 0x167A JUMP JUMPDEST SWAP4 SWAP3 POP POP POP JUMP JUMPDEST PUSH1 0x0 DUP2 MLOAD DUP1 DUP5 MSTORE PUSH1 0x0 JUMPDEST DUP2 DUP2 LT ISZERO PUSH2 0x16DA JUMPI PUSH1 0x20 DUP2 DUP6 ADD DUP2 ADD MLOAD DUP7 DUP4 ADD DUP3 ADD MSTORE ADD PUSH2 0x16BE JUMP JUMPDEST POP PUSH1 0x0 PUSH1 0x20 DUP3 DUP7 ADD ADD MSTORE PUSH1 0x20 PUSH1 0x1F NOT PUSH1 0x1F DUP4 ADD AND DUP6 ADD ADD SWAP2 POP POP SWAP3 SWAP2 POP POP JUMP JUMPDEST PUSH1 0x20 DUP2 MSTORE PUSH1 0x0 PUSH2 0x16AD PUSH1 0x20 DUP4 ADD DUP5 PUSH2 0x16B4 JUMP JUMPDEST PUSH1 0x0 PUSH1 0x20 DUP3 DUP5 SUB SLT ISZERO PUSH2 0x171F JUMPI PUSH1 0x0 DUP1 REVERT JUMPDEST POP CALLDATALOAD SWAP2 SWAP1 POP JUMP JUMPDEST DUP1 CALLDATALOAD PUSH1 0x1 PUSH1 0x1 PUSH1 0xA0 SHL SUB DUP2 AND DUP2 EQ PUSH2 0x173D JUMPI PUSH1 0x0 DUP1 REVERT JUMPDEST SWAP2 SWAP1 POP JUMP JUMPDEST PUSH1 0x0 DUP1 PUSH1 0x40 DUP4 DUP6 SUB SLT ISZERO PUSH2 0x1755 JUMPI PUSH1 0x0 DUP1 REVERT JUMPDEST PUSH2 0x175E DUP4 PUSH2 0x1726 JUMP JUMPDEST SWAP5 PUSH1 0x20 SWAP4 SWAP1 SWAP4 ADD CALLDATALOAD SWAP4 POP POP POP JUMP JUMPDEST PUSH1 0x0 DUP1 PUSH1 0x0 PUSH1 0x60 DUP5 DUP7 SUB SLT ISZERO PUSH2 0x1781 JUMPI PUSH1 0x0 DUP1 REVERT JUMPDEST PUSH2 0x178A DUP5 PUSH2 0x1726 JUMP JUMPDEST SWAP3 POP PUSH2 0x1798 PUSH1 0x20 DUP6 ADD PUSH2 0x1726 JUMP JUMPDEST SWAP2 POP PUSH1 0x40 DUP5 ADD CALLDATALOAD SWAP1 POP SWAP3 POP SWAP3 POP SWAP3 JUMP JUMPDEST PUSH1 0x0 DUP1 PUSH1 0x40 DUP4 DUP6 SUB SLT ISZERO PUSH2 0x17BB JUMPI PUSH1 0x0 DUP1 REVERT JUMPDEST POP POP DUP1 CALLDATALOAD SWAP3 PUSH1 0x20 SWAP1 SWAP2 ADD CALLDATALOAD SWAP2 POP JUMP JUMPDEST PUSH1 0x20 DUP1 DUP3 MSTORE DUP3 MLOAD DUP3 DUP3 ADD DUP2 SWAP1 MSTORE PUSH1 0x0 SWAP2 SWAP1 PUSH1 0x40 SWAP1 DUP2 DUP6 ADD SWAP1 DUP7 DUP5 ADD DUP6 JUMPDEST DUP3 DUP2 LT ISZERO PUSH2 0x181E JUMPI DUP2 MLOAD DUP1 MLOAD PUSH1 0x1 PUSH1 0x1 PUSH1 0xA0 SHL SUB AND DUP6 MSTORE DUP7 ADD MLOAD PUSH1 0x1 PUSH1 0x1 PUSH1 0x60 SHL SUB AND DUP7 DUP6 ADD MSTORE SWAP3 DUP5 ADD SWAP3 SWAP1 DUP6 ADD SWAP1 PUSH1 0x1 ADD PUSH2 0x17E7 JUMP JUMPDEST POP SWAP2 SWAP8 SWAP7 POP POP POP POP POP POP POP JUMP JUMPDEST PUSH1 0x0 PUSH1 0x20 DUP3 DUP5 SUB SLT ISZERO PUSH2 0x183D JUMPI PUSH1 0x0 DUP1 REVERT JUMPDEST PUSH2 0x16AD DUP3 PUSH2 0x1726 JUMP JUMPDEST PUSH1 0x0 DUP1 DUP4 PUSH1 0x1F DUP5 ADD SLT PUSH2 0x1858 JUMPI PUSH1 0x0 DUP1 REVERT JUMPDEST POP DUP2 CALLDATALOAD PUSH8 0xFFFFFFFFFFFFFFFF DUP2 GT ISZERO PUSH2 0x1870 JUMPI PUSH1 0x0 DUP1 REVERT JUMPDEST PUSH1 0x20 DUP4 ADD SWAP2 POP DUP4 PUSH1 0x20 DUP3 PUSH1 0x5 SHL DUP6 ADD ADD GT ISZERO PUSH2 0x666 JUMPI PUSH1 0x0 DUP1 REVERT JUMPDEST DUP1 CALLDATALOAD PUSH1 0x1 PUSH1 0x1 PUSH1 0x60 SHL SUB DUP2 AND DUP2 EQ PUSH2 0x173D JUMPI PUSH1 0x0 DUP1 REVERT JUMPDEST PUSH1 0x0 DUP1 PUSH1 0x0 DUP1 PUSH1 0x0 DUP1 PUSH1 0x0 DUP1 PUSH1 0xA0 DUP10 DUP12 SUB SLT ISZERO PUSH2 0x18BE JUMPI PUSH1 0x0 DUP1 REVERT JUMPDEST DUP9 CALLDATALOAD PUSH8 0xFFFFFFFFFFFFFFFF DUP1 DUP3 GT ISZERO PUSH2 0x18D6 JUMPI PUSH1 0x0 DUP1 REVERT JUMPDEST DUP2 DUP12 ADD SWAP2 POP DUP12 PUSH1 0x1F DUP4 ADD SLT PUSH2 0x18EA JUMPI PUSH1 0x0 DUP1 REVERT JUMPDEST DUP2 CALLDATALOAD DUP2 DUP2 GT ISZERO PUSH2 0x18F9 JUMPI PUSH1 0x0 DUP1 REVERT JUMPDEST DUP13 PUSH1 0x20 DUP3 DUP6 ADD ADD GT ISZERO PUSH2 0x190B JUMPI PUSH1 0x0 DUP1 REVERT JUMPDEST PUSH1 0x20 SWAP3 DUP4 ADD SWAP11 POP SWAP9 POP SWAP1 DUP11 ADD CALLDATALOAD SWAP1 DUP1 DUP3 GT ISZERO PUSH2 0x1926 JUMPI PUSH1 0x0 DUP1 REVERT JUMPDEST PUSH2 0x1932 DUP13 DUP4 DUP14 ADD PUSH2 0x1846 JUMP JUMPDEST SWAP1 SWAP9 POP SWAP7 POP PUSH1 0x40 DUP12 ADD CALLDATALOAD SWAP2 POP DUP1 DUP3 GT ISZERO PUSH2 0x194B JUMPI PUSH1 0x0 DUP1 REVERT JUMPDEST POP PUSH2 0x1958 DUP12 DUP3 DUP13 ADD PUSH2 0x1846 JUMP JUMPDEST SWAP1 SWAP6 POP SWAP4 POP PUSH2 0x196B SWAP1 POP PUSH1 0x60 DUP11 ADD PUSH2 0x188B JUMP JUMPDEST SWAP2 POP PUSH2 0x1979 PUSH1 0x80 DUP11 ADD PUSH2 0x1726 JUMP JUMPDEST SWAP1 POP SWAP3 SWAP6 SWAP9 POP SWAP3 SWAP6 SWAP9 SWAP1 SWAP4 SWAP7 POP JUMP JUMPDEST PUSH1 0x0 DUP1 PUSH1 0x40 DUP4 DUP6 SUB SLT ISZERO PUSH2 0x199B JUMPI PUSH1 0x0 DUP1 REVERT JUMPDEST PUSH2 0x19A4 DUP4 PUSH2 0x1726 JUMP JUMPDEST SWAP2 POP PUSH1 0x20 DUP4 ADD CALLDATALOAD DUP1 ISZERO ISZERO DUP2 EQ PUSH2 0x19B9 JUMPI PUSH1 0x0 DUP1 REVERT JUMPDEST DUP1 SWAP2 POP POP SWAP3 POP SWAP3 SWAP1 POP JUMP JUMPDEST PUSH4 0x4E487B71 PUSH1 0xE0 SHL PUSH1 0x0 MSTORE PUSH1 0x41 PUSH1 0x4 MSTORE PUSH1 0x24 PUSH1 0x0 REVERT JUMPDEST PUSH1 0x0 DUP1 PUSH1 0x0 DUP1 PUSH1 0x80 DUP6 DUP8 SUB SLT ISZERO PUSH2 0x19F0 JUMPI PUSH1 0x0 DUP1 REVERT JUMPDEST PUSH2 0x19F9 DUP6 PUSH2 0x1726 JUMP JUMPDEST SWAP4 POP PUSH2 0x1A07 PUSH1 0x20 DUP7 ADD PUSH2 0x1726 JUMP JUMPDEST SWAP3 POP PUSH1 0x40 DUP6 ADD CALLDATALOAD SWAP2 POP PUSH1 0x60 DUP6 ADD CALLDATALOAD PUSH8 0xFFFFFFFFFFFFFFFF DUP1 DUP3 GT ISZERO PUSH2 0x1A2B JUMPI PUSH1 0x0 DUP1 REVERT JUMPDEST DUP2 DUP8 ADD SWAP2 POP DUP8 PUSH1 0x1F DUP4 ADD SLT PUSH2 0x1A3F JUMPI PUSH1 0x0 DUP1 REVERT JUMPDEST DUP2 CALLDATALOAD DUP2 DUP2 GT ISZERO PUSH2 0x1A51 JUMPI PUSH2 0x1A51 PUSH2 0x19C4 JUMP JUMPDEST PUSH1 0x40 MLOAD PUSH1 0x1F DUP3 ADD PUSH1 0x1F NOT SWAP1 DUP2 AND PUSH1 0x3F ADD AND DUP2 ADD SWAP1 DUP4 DUP3 GT DUP2 DUP4 LT OR ISZERO PUSH2 0x1A79 JUMPI PUSH2 0x1A79 PUSH2 0x19C4 JUMP JUMPDEST DUP2 PUSH1 0x40 MSTORE DUP3 DUP2 MSTORE DUP11 PUSH1 0x20 DUP5 DUP8 ADD ADD GT ISZERO PUSH2 0x1A92 JUMPI PUSH1 0x0 DUP1 REVERT JUMPDEST DUP3 PUSH1 0x20 DUP7 ADD PUSH1 0x20 DUP4 ADD CALLDATACOPY PUSH1 0x0 PUSH1 0x20 DUP5 DUP4 ADD ADD MSTORE DUP1 SWAP6 POP POP POP POP POP POP SWAP3 SWAP6 SWAP2 SWAP5 POP SWAP3 POP JUMP JUMPDEST PUSH1 0x0 DUP1 PUSH1 0x40 DUP4 DUP6 SUB SLT ISZERO PUSH2 0x1AC9 JUMPI PUSH1 0x0 DUP1 REVERT JUMPDEST PUSH2 0x1AD2 DUP4 PUSH2 0x1726 JUMP JUMPDEST SWAP2 POP PUSH2 0x1AE0 PUSH1 0x20 DUP5 ADD PUSH2 0x1726 JUMP JUMPDEST SWAP1 POP SWAP3 POP SWAP3 SWAP1 POP JUMP JUMPDEST PUSH1 0x1 DUP2 DUP2 SHR SWAP1 DUP3 AND DUP1 PUSH2 0x1AFD JUMPI PUSH1 0x7F DUP3 AND SWAP2 POP JUMPDEST PUSH1 0x20 DUP3 LT DUP2 SUB PUSH2 0x1B1D JUMPI PUSH4 0x4E487B71 PUSH1 0xE0 SHL PUSH1 0x0 MSTORE PUSH1 0x22 PUSH1 0x4 MSTORE PUSH1 0x24 PUSH1 0x0 REVERT JUMPDEST POP SWAP2 SWAP1 POP JUMP JUMPDEST DUP1 DUP3 MUL DUP2 ISZERO DUP3 DUP3 DIV DUP5 EQ OR PUSH2 0x486 JUMPI PUSH2 0x486 PUSH2 0x1651 JUMP JUMPDEST PUSH1 0x0 DUP3 PUSH2 0x1B57 JUMPI PUSH4 0x4E487B71 PUSH1 0xE0 SHL PUSH1 0x0 MSTORE PUSH1 0x12 PUSH1 0x4 MSTORE PUSH1 0x24 PUSH1 0x0 REVERT JUMPDEST POP DIV SWAP1 JUMP JUMPDEST DUP2 DUP2 SUB DUP2 DUP2 GT ISZERO PUSH2 0x486 JUMPI PUSH2 0x486 PUSH2 0x1651 JUMP JUMPDEST PUSH4 0x4E487B71 PUSH1 0xE0 SHL PUSH1 0x0 MSTORE PUSH1 0x32 PUSH1 0x4 MSTORE PUSH1 0x24 PUSH1 0x0 REVERT JUMPDEST PUSH1 0x0 PUSH1 0x20 DUP3 DUP5 SUB SLT ISZERO PUSH2 0x1B97 JUMPI PUSH1 0x0 DUP1 REVERT JUMPDEST PUSH2 0x16AD DUP3 PUSH2 0x188B JUMP JUMPDEST PUSH1 0x0 PUSH1 0x1 DUP3 ADD PUSH2 0x1BB2 JUMPI PUSH2 0x1BB2 PUSH2 0x1651 JUMP JUMPDEST POP PUSH1 0x1 ADD SWAP1 JUMP JUMPDEST PUSH1 0x1F DUP3 GT ISZERO PUSH2 0x717 JUMPI PUSH1 0x0 DUP2 PUSH1 0x0 MSTORE PUSH1 0x20 PUSH1 0x0 KECCAK256 PUSH1 0x1F DUP6 ADD PUSH1 0x5 SHR DUP2 ADD PUSH1 0x20 DUP7 LT ISZERO PUSH2 0x1BE2 JUMPI POP DUP1 JUMPDEST PUSH1 0x1F DUP6 ADD PUSH1 0x5 SHR DUP3 ADD SWAP2 POP JUMPDEST DUP2 DUP2 LT ISZERO PUSH2 0x13AC JUMPI DUP3 DUP2 SSTORE PUSH1 0x1 ADD PUSH2 0x1BEE JUMP JUMPDEST PUSH8 0xFFFFFFFFFFFFFFFF DUP4 GT ISZERO PUSH2 0x1C19 JUMPI PUSH2 0x1C19 PUSH2 0x19C4 JUMP JUMPDEST PUSH2 0x1C2D DUP4 PUSH2 0x1C27 DUP4 SLOAD PUSH2 0x1AE9 JUMP JUMPDEST DUP4 PUSH2 0x1BB9 JUMP JUMPDEST PUSH1 0x0 PUSH1 0x1F DUP5 GT PUSH1 0x1 DUP2 EQ PUSH2 0x1C61 JUMPI PUSH1 0x0 DUP6 ISZERO PUSH2 0x1C49 JUMPI POP DUP4 DUP3 ADD CALLDATALOAD JUMPDEST PUSH1 0x0 NOT PUSH1 0x3 DUP8 SWAP1 SHL SHR NOT AND PUSH1 0x1 DUP7 SWAP1 SHL OR DUP4 SSTORE PUSH2 0x881 JUMP JUMPDEST PUSH1 0x0 DUP4 DUP2 MSTORE PUSH1 0x20 SWAP1 KECCAK256 PUSH1 0x1F NOT DUP7 AND SWAP1 DUP4 JUMPDEST DUP3 DUP2 LT ISZERO PUSH2 0x1C92 JUMPI DUP7 DUP6 ADD CALLDATALOAD DUP3 SSTORE PUSH1 0x20 SWAP5 DUP6 ADD SWAP5 PUSH1 0x1 SWAP1 SWAP3 ADD SWAP2 ADD PUSH2 0x1C72 JUMP JUMPDEST POP DUP7 DUP3 LT ISZERO PUSH2 0x1CAF JUMPI PUSH1 0x0 NOT PUSH1 0xF8 DUP9 PUSH1 0x3 SHL AND SHR NOT DUP5 DUP8 ADD CALLDATALOAD AND DUP2 SSTORE JUMPDEST POP POP PUSH1 0x1 DUP6 PUSH1 0x1 SHL ADD DUP4 SSTORE POP POP POP POP POP JUMP JUMPDEST DUP2 DUP4 MSTORE PUSH1 0x0 PUSH1 0x20 DUP1 DUP6 ADD SWAP5 POP DUP3 PUSH1 0x0 JUMPDEST DUP6 DUP2 LT ISZERO PUSH2 0x1CFD JUMPI PUSH1 0x1 PUSH1 0x1 PUSH1 0x60 SHL SUB PUSH2 0x1CEA DUP4 PUSH2 0x188B JUMP JUMPDEST AND DUP8 MSTORE SWAP6 DUP3 ADD SWAP6 SWAP1 DUP3 ADD SWAP1 PUSH1 0x1 ADD PUSH2 0x1CD1 JUMP JUMPDEST POP SWAP5 SWAP6 SWAP5 POP POP POP POP POP JUMP JUMPDEST PUSH1 0x80 DUP2 MSTORE DUP7 PUSH1 0x80 DUP3 ADD MSTORE DUP7 DUP9 PUSH1 0xA0 DUP4 ADD CALLDATACOPY PUSH1 0x0 PUSH1 0xA0 DUP9 DUP4 ADD DUP2 ADD DUP3 SWAP1 MSTORE PUSH1 0x1F NOT PUSH1 0x1F DUP11 ADD AND DUP4 ADD DUP4 DUP2 SUB DUP3 ADD PUSH1 0x20 DUP1 DUP7 ADD SWAP2 SWAP1 SWAP2 MSTORE SWAP2 DUP2 ADD DUP9 SWAP1 MSTORE DUP9 SWAP2 DUP4 SWAP2 PUSH1 0xC0 ADD JUMPDEST DUP10 DUP4 LT ISZERO PUSH2 0x1D79 JUMPI PUSH1 0x1 PUSH1 0x1 PUSH1 0xA0 SHL SUB PUSH2 0x1D64 DUP6 PUSH2 0x1726 JUMP JUMPDEST AND DUP2 MSTORE SWAP3 DUP2 ADD SWAP3 PUSH1 0x1 SWAP3 SWAP1 SWAP3 ADD SWAP2 DUP2 ADD PUSH2 0x1D4B JUMP JUMPDEST DUP6 DUP2 SUB PUSH1 0x40 DUP8 ADD MSTORE PUSH2 0x1D8C DUP2 DUP10 DUP12 PUSH2 0x1CC1 JUMP JUMPDEST SWAP5 POP POP POP POP POP PUSH2 0x1DA7 PUSH1 0x60 DUP4 ADD DUP5 PUSH1 0x1 PUSH1 0x1 PUSH1 0x60 SHL SUB AND SWAP1 MSTORE JUMP JUMPDEST SWAP9 SWAP8 POP POP POP POP POP POP POP POP JUMP JUMPDEST PUSH1 0x1 PUSH1 0x1 PUSH1 0xA0 SHL SUB DUP6 DUP2 AND DUP3 MSTORE DUP5 AND PUSH1 0x20 DUP3 ADD MSTORE PUSH1 0x40 DUP2 ADD DUP4 SWAP1 MSTORE PUSH1 0x80 PUSH1 0x60 DUP3 ADD DUP2 SWAP1 MSTORE PUSH1 0x0 SWAP1 PUSH2 0x1DE6 SWAP1 DUP4 ADD DUP5 PUSH2 0x16B4 JUMP JUMPDEST SWAP7 SWAP6 POP POP POP POP POP POP JUMP JUMPDEST PUSH1 0x0 PUSH1 0x20 DUP3 DUP5 SUB SLT ISZERO PUSH2 0x1E02 JUMPI PUSH1 0x0 DUP1 REVERT JUMPDEST DUP2 MLOAD PUSH2 0x16AD DUP2 PUSH2 0x167A JUMP INVALID LOG2 PUSH5 0x6970667358 0x22 SLT KECCAK256 LOG4 PUSH32 0x8CA771DDEFE2E2948C2BFD074C193F82CD00775EFA880A5E93E7C926FE5A6473 PUSH16 0x6C634300081800330000000000000000 "},"methodIdentifiers":{"approve(address,uint256)":"095ea7b3","balanceOf(address)":"70a08231","claim()":"4e71d92d","deposit()":"d0e30db0","getApproved(uint256)":"081812fc","getSplits(uint256)":"2a5768b7","isApprovedForAll(address,address)":"e985e9c5","mintCollective(string,address[],uint96[],uint96,address)":"7c8dd1cf","name()":"06fdde03","owner()":"8da5cb5b","ownerOf(uint256)":"6352211e","released(address)":"9852595c","renounceOwnership()":"715018a6","royaltyInfo(uint256,uint256)":"2a55205a","safeTransferFrom(address,address,uint256)":"42842e0e","safeTransferFrom(address,address,uint256,bytes)":"b88d4fde","setApprovalForAll(address,bool)":"a22cb465","supportsInterface(bytes4)":"01ffc9a7","symbol()":"95d89b41","tokenURI(uint256)":"c87b56dd","totalReceived()":"a3c2c462","transferFrom(address,address,uint256)":"23b872dd","transferOwnership(address)":"f2fde38b"}}}}}